:020000040800F2
:100000000004002001010008350400082D04000848
:100010003104000809030008310600080000000050
:10002000000000000000000000000000590400086B
:100030000D0300080000000037040008CF05000889
:100040001B0100081B0100081B0100081B01000820
:100050001B0100081B0100081B0100081B01000810
:100060001B0100081B0100081B0100081B01000800
:100070001B0100081B0100081B0100081B010008F0
:100080001B0100081B0100081B0100081B010008E0
:100090001B0100081B0100081B0100081B010008D0
:1000A0001B0100081B0100081B0100081B010008C0
:1000B0001B0100081B0100081B0100081B010008B0
:1000C0001B0100081B0100081B0100081B010008A0
:1000D0001B0100081B0100081B0100081B01000890
:1000E0001B0100081B0100081B010008DFF80CD0F1
:1000F00000F018F8004800475306000800040020EC
:100100000648804706480047FEE7FEE7FEE7FEE7B1
:10011000FEE7FEE7FEE7FEE7FEE7FEE7D1050008A3
:10012000ED000008064C074D06E0E06840F00103D2
:1001300094E8070098471034AC42F6D3FFF7DAFF93
:10014000F8070008080800082DE9F04104460D46AC
:1001500016461F4634B1012C09D101211B4800F07D
:1001600061F904E00121194800F05EF900BF00BF09
:1001700035B1012D09D10221144800F053F904E0F2
:100180000221124800F050F900BF00BF36B1012E25
:100190000AD131020D4800F045F905E04FF48071B5
:1001A0000A4800F041F900BF00BF37B1012F09D163
:1001B0000821064800F036F904E00821034800F061
:1001C00033F900BF00BFBDE8F0810000000C014022
:1001D00010B50023012211461046FFF7B5FF642039
:1001E00000F0DAF90123002219461846FFF7ACFFA8
:1001F000642000F0D1F901231A4600211846FFF7C8
:10020000A3FF642000F0C8F901231A461946002014
:10021000FFF79AFF642000F0BFF910BD10B501236D
:100220001A4619460020FFF78FFF41F2883000F090
:10023000B3F901231A4600211846FFF785FF41F262
:10024000883000F0A9F90123002219461846FFF76B
:100250007BFF41F2883000F09FF900230122114614
:100260001046FFF771FF41F2883000F095F910BD9C
:1002700010B50023012211461046FFF765FF6420E8
:1002800000F08AF90123002219461846FFF75CFFA7
:10029000642000F081F901231A4600211846FFF777
:1002A00053FF642000F078F901231A461946002014
:1002B000FFF74AFF642000F06FF910BD10B501236D
:1002C0001A4619460020FFF73FFF642000F064F94A
:1002D00001231A4600211846FFF736FF642000F07C
:1002E0005BF90123002219461846FFF72DFF642011
:1002F00000F052F90023012211461046FFF724FFB7
:10030000642000F049F910BD00BFFEE770472DE9F9
:10031000F04102460025002600200023002400278B
:1003200091F803C00CF00F0591F803C00CF0100C0D
:10033000BCF1000F03D091F802C04CEA050591F81A
:1003400000C0BCF1000F31D0146800202BE04FF04A
:10035000010C0CFA00F3B1F800C00CEA03069E424F
:1003600020D183004FF00F0C0CFA03F7BC4305FAC1
:1003700003FC4CEA040491F803C0BCF1280F06D139
:100380004FF0010C0CFA00FCC2F814C00AE091F81E
:1003900003C0BCF1480F05D14FF0010C0CFA00FC72
:1003A000C2F810C0401C0828D1D31460B1F800C0B6
:1003B000BCF1FF0F34DD546800202EE000F1080C82
:1003C0004FF0010808FA0CF3B1F800C00CEA03067C
:1003D0009E4221D183004FF00F0C0CFA03F7BC436F
:1003E00005FA03FC4CEA040491F803C0BCF1280FA1
:1003F00005D100F1080C08FA0CF8C2F8148091F845
:1004000003C0BCF1480F07D100F1080C4FF0010800
:1004100008FA0CF8C2F81080401C0828CED35460AB
:10042000BDE8F081416170470161704700BFFEE7A0
:1004300000BFFEE77047704729B1064A9269024340
:10044000044B9A6104E0034A92698243014B9A612A
:100450007047000000100240704710B500F002F82D
:1004600010BD00000CB500200190009033480068DA
:1004700040F480303149086000BF3048006800F423
:10048000003000900198401C0190009818B9019824
:10049000B0F5A06FF1D12948006800F4003010B128
:1004A0000120009001E0002000900098012843D135
:1004B0002348006840F010002149086008460068A1
:1004C00020F0030008600846006840F00200086061
:1004D0001A4840681949486008464068486008461C
:1004E000406840F4806048600846406820F47C1012
:1004F00048600846406840F4E810486008460068D4
:1005000040F08070086000BF0C48006800F0007088
:100510000028F9D00948406820F0030007494860E6
:100520000846406840F00200486000BF0348406849
:1005300000F00C000828F9D10CBD000000100240AA
:100540000020024030B50146B1F1807F01D3012087
:1005500030BD21F07F40401E4FF0E0225061501727
:100560000F22002807DA13071D0E094B00F00F04B5
:10057000241F1D5503E013071C0E064B1C5400BF1F
:1005800000204FF0E0229061072010610020DFE79B
:1005900018ED00E000E400E070B504464820FFF7E5
:1005A000D1FF002508E000BF4FF0E020006900F413
:1005B00080300028F8D06D1CA542F4D34FF0E02025
:1005C000006920F001004FF0E021086170BD704724
:1005D00010B51348006840F0010011490860084652
:1005E0004068104908400E494860084600680E49B6
:1005F00008400B4908600846006820F48020086025
:100600000846406820F4FE0048604FF41F008860F0
:10061000FFF723FF4FF000600449086010BD0000A1
:10062000001002400000FFF8FFFFF6FE08ED00E0BA
:1006300000BFFEE702E008C8121F08C1002AFAD175
:1006400070477047002001E001C1121F002AFBD152
:10065000704700F006F800F0C5F801E0FFF7DEFD96
:10066000FCE710B500F010F800F024F800F038F8BE
:1006700000F04CF800F060F800F072F800F086F836
:1006800000F09AF810BD000008B501210820FFF71E
:10069000D3FE0120ADF8000010208DF803000320E8
:1006A0008DF8020069460248FFF731FE08BD0000E0
:1006B000000C014008B501210820FFF7BDFE022013
:1006C000ADF8000010208DF8030003208DF8020023
:1006D00069460248FFF71BFE08BD0000000C014000
:1006E00008B501210820FFF7A7FE4FF48070ADF890
:1006F000000010208DF8030003208DF802006946E9
:100700000148FFF704FE08BD000C014008B50121B7
:100710000820FFF791FE0820ADF8000010208DF8AA
:10072000030003208DF8020069460248FFF7EFFD41
:1007300008BD0000000C014008B501210820FFF7AA
:100740007BFE1020ADF800008DF8030003208DF82B
:10075000020069460148FFF7DAFD08BD000C0140C0
:1007600008B501210820FFF767FE2020ADF8000042
:1007700010208DF8030003208DF80200694602481E
:10078000FFF7C5FD08BD0000000C014008B50121C0
:100790000820FFF751FE4020ADF8000010208DF832
:1007A000030003208DF8020069460248FFF7AFFD01
:1007B00008BD0000000C014008B501210820FFF72A
:1007C0003BFE8020ADF8000010208DF803000320D0
:1007D0008DF8020069460248FFF799FD08BD000048
:1007E000000C014010B5FFF719FDFFF7F1FCFFF712
:1007F00065FDFFF73DFD10BD080800080000002062
:0808000000040000440600089A
:04000005080000ED02
:00000001FF
