:030000000201D327
:0C01D300787FE4F6D8FD75812C02021A3A
:0902E1000101010101010101010B
:1002AF00091B0101010101010101011208007F0079
:1002BF00BF00DF00EF00F700FB00FD00FE00FF01B5
:0202CF001A0013
:10025F0078247C007D007BFF7A0279E17E007F09A4
:10026F001200D3D2A4D2A5D2A6D2A3D2A2D2A112C7
:10027F0000F9E4FFE4FEE51A20E011EF75F003A4A6
:10028F002E25E02408F808E6F5808008E51A30E00E
:10029F00037580FF051A0EBE03DC0FBF03D680CF98
:1000F900C2A3D2A2D2A120A4141202D220A43A20CF
:10010900A4FD1202D220A4FDE4F51B802C20A51425
:100119001202D220A50920A5FD1202D220A5FDE4D4
:10012900F51C801520A6121202D220A60920A6FDD0
:100139001202D220A6FDE4F51DD2A3C2A2D2A120AB
:10014900A4141202D220A43A20A4FD1202D220A49F
:10015900FDE4F51E802C20A5141202D220A5092049
:10016900A5FD1202D220A5FDE4F51F801520A612D7
:100179001202D220A60920A6FD1202D220A6FDE471
:10018900F520D2A3D2A2C2A120A4131202D220A484
:100199003820A4FD1202D220A4FDE4F5212220A5D5
:1001A900131202D220A50920A5FD1202D220A5FD15
:1001B900E4F5222220A6121202D220A60920A6FDC9
:0A01C9001202D220A6FDE4F5232265
:0E02D200E4FFFE0FBF00010EBE03F8BFE8F50B
:0102E00022FB
:1001DF0002025FE493A3F8E493A34003F68001F2D5
:1001EF0008DFF48029E493A3F85407240CC8C33321
:1001FF00C4540F4420C8834004F456800146F6DFF0
:10020F00E4800B01020408102040809002AFE47ECE
:10021F00019360BCA3FF543F30E509541FFEE493E4
:10022F00A360010ECF54C025E060A840B8E493A3AB
:10023F00FAE493A3F8E493A3C8C582C8CAC583CAD6
:10024F00F0A3C8C582C8CAC583CADFE9DEE780BE8E
:0102D100002C
:10000300E709F608DFFA8046E709F208DFFA803EDF
:1000130088828C83E709F0A3DFFA8032E309F608CC
:10002300DFFA8078E309F208DFFA807088828C8334
:10003300E309F0A3DFFA806489828A83E0A3F608E8
:10004300DFFA805889828A83E0A3F208DFFA804CC2
:1000530080D280FA80C680D4806980F28033801099
:1000630080A680EA809A80A880DA80E280CA803302
:1000730089828A83ECFAE493A3C8C582C8CCC5837A
:10008300CCF0A3C8C582C8CCC583CCDFE9DEE7804A
:100093000D89828A83E493A3F608DFF9ECFAA9F0C9
:1000A300EDFB2289828A83ECFAE0A3C8C582C8CC1F
:1000B300C583CCF0A3C8C582C8CCC583CCDFEADE38
:1000C300E880DB89828A83E493A3F208DFF980CC9A
:1000D30088F0EF60010E4E60C388F0ED2402B40493
:1000E3000050B9F582EB2402B4040050AF2323453A
:0600F3008223900053730C
:00000001FF
