:030000000204A84F
:0C04A800787FE4F6D8FD75815B0204EF5C
:10056B000101010101010101010101010101010170
:02057B0001017C
:10053400100800000001000000010000000100009C
:10054400000110180000000000010001000000007C
:10055400000100011028000000000000000000015C
:060564000001000100018E
:1000030078387C007D007BFF7A05796B7E007F0961
:100013001203F778417C007D007BFF7A0579747EBB
:10002300007F091203F7754A00754B03754C007581
:100033004D03754E00754F0375500075510375528E
:1000430000755303755400755503755600755703B2
:10005300755800755903755A00755B03C2A0D2A188
:10006300D2A2A2A4E433F5386541604C12057DA207
:10007300A4E4336538703EE541703AAE4AAF4BFCB9
:100083007D0212041DAE04AF05EF4E601AC283E574
:1000930008450924FF9280E518451924FF9281E55C
:1000A30028452924FF9282EF4E7002D283054BE547
:1000B3004B7002054A853841A2A5E433F539654200
:1000C300604C12057DA2A5E4336539703EE54270AC
:1000D3003AAE4CAF4DFC7D0212041DAE04AF05EFEA
:1000E3004E601AC283E50A450B24FF9280E51A4548
:1000F3001B24FF9281E52A452B24FF9282EF4E7049
:1001030002D283054DE54D7002054C853942A2A606
:10011300E433F53A6543604C12057DA2A6E43365EA
:100123003A703EE543703AAE4EAF4FFC7D02120487
:100133001DAE04AF05EF4E601AC283E50C450D24D6
:10014300FF9280E51C451D24FF9281E52C452D245B
:10015300FF9282EF4E7002D283054FE54F70020586
:100163004E853A43D2A0C2A1D2A2A2A4E433F53B66
:100173006544604C12057DA2A4E433653B703EE503
:1001830044703AAE50AF51FC7D0212041DAE04AF71
:1001930005EF4E601AC283E50E450F24FF9280E5FA
:1001A3001E451F24FF9281E52E452F24FF9282EFE7
:1001B3004E7002D2830551E55170020550853B44D0
:1001C300A2A5E433F53C6545604C12057DA2A5E488
:1001D30033653C703EE545703AAE54AF55FC7D0245
:1001E30012041DAE04AF05EF4E601AC283E510453D
:1001F3001124FF9280E520452124FF9281E53045BB
:100203003124FF9282EF4E7002D2830555E555707B
:10021300020554853C45A2A6E433F53D6546604C92
:1002230012057DA2A6E433653D703EE546703AAE05
:1002330056AF57FC7D0212041DAE04AF05EF4E60AE
:100243001AC283E512451324FF9280E52245232435
:10025300FF9281E532453324FF9282EF4E7002D242
:10026300830557E55770020556853D46D2A0D2A1B6
:10027300C2A2A2A4E433F53E6547604C12057DA2F9
:10028300A4E433653E703EE547703AAE58AF59FC7F
:100293007D0212041DAE04AF05EF4E601AC283E562
:1002A30014451524FF9280E524452524FF9281E51A
:1002B30034453524FF9282EF4E7002D2830559E50F
:1002C3005970020558853E47A2A5E433F53F6548BA
:1002D300700302005F12057DA2A5E433653F703E03
:1002E300E548703AAE5AAF5BFC7D0212041DAE04C2
:1002F300AF05EF4E601AC283E516451724FF9280BF
:10030300E526452724FF9281E536453724FF92826F
:10031300EF4E7002D283055BE55B7002055A853FA1
:040323004802005F2D
:0E057D007FE87E03EF1FAC0670011E4C70F687
:01058B00224D
:1004B400020003E493A3F8E493A34003F68001F25B
:1004C40008DFF48029E493A3F85407240CC8C33349
:1004D400C4540F4420C8834004F456800146F6DF18
:1004E400E4800B0102040810204080900534E47E6F
:1004F400019360BCA3FF543F30E509541FFEE4930D
:10050400A360010ECF54C025E060A840B8E493A3D3
:10051400FAE493A3F8E493A3C8C582C8CAC583CAFE
:10052400F0A3C8C582C8CAC583CADFE9DEE780BEB6
:01056A000090
:10032700E709F608DFFA8046E709F208DFFA803EB8
:1003370088828C83E709F0A3DFFA8032E309F608A5
:10034700DFFA8078E309F208DFFA807088828C830D
:10035700E309F0A3DFFA806489828A83E0A3F608C1
:10036700DFFA805889828A83E0A3F208DFFA804C9B
:1003770080D280FA80C680D4806980F28033801072
:1003870080A680EA809A80A880DA80E280CA8033DB
:1003970089828A83ECFAE493A3C8C582C8CCC58353
:1003A700CCF0A3C8C582C8CCC583CCDFE9DEE78023
:1003B7000D89828A83E493A3F608DFF9ECFAA9F0A2
:1003C700EDFB2289828A83ECFAE0A3C8C582C8CCF8
:1003D700C583CCF0A3C8C582C8CCC583CCDFEADE11
:1003E700E880DB89828A83E493A3F208DFF980CC73
:1003F70088F0EF60010E4E60C388F0ED2402B4046C
:100407000050B9F582EB2402B4040050AF23234512
:06041700822390037773BD
:10041D00C2D5EC30E709B2D5E4C39DFDE49CFCEEFA
:10042D0030E715B2D5E4C39FFFE49EFE120453C31B
:10043D00E49DFDE49CFC800312045330D507C3E416
:06044D009FFFE49EFE2269
:10045300BC000BBE0029EF8DF084FFADF022E4CC8D
:10046300F875F008EF2FFFEE33FEEC33FCEE9DEC56
:10047300984005FCEE9DFE0FD5F0E9E4CEFD22ED9C
:10048300F8F5F0EE8420D21CFEADF075F008EF2FE6
:10049300FFED33FD4007985006D5F0F222C398FDD7
:0504A3000FD5F0EA2274
:00000001FF
