:030000000201A159
:0C01A100787FE4F6D8FD75814B0201E880
:090281000101010101010101016B
:10022D0010080000000100000001000000010000A6
:10023D000001101800000000000100010000000086
:10024D000001000110280000000000000000000166
:10025D000001000100010939010101010101010144
:04026D000101380053
:1000F90078437C007D007BFF7A0279817E007F094D
:100109001200D3D2A4D2A5D2A6D2A3D2A2D2A1C27E
:10011900B3C2A3D2A2D2A120A405E4F539800E204E
:10012900A505E4F53A800620A606E4F53B1202721D
:10013900E4F542E542C3940350D7E4FFE54275F084
:1001490003A424392FF8E6FEE54275F003A42443FD
:100159002FF8E6FD6E6039ED6036E54275F003A4CF
:10016900FE2FFD25E02408F8E6FA08E64A24FF9266
:1001790080ED25E02418F8E6FC08E64C24FF92817E
:10018900EE2F25E02428F8E6FC08E64C24FF9282AD
:080199000FBF03A80542809B83
:0E027200E4FFFE0FBF00010EBE03F8BFE8F56B
:01028000225B
:1001AD000200F9E493A3F8E493A34003F68001F26F
:1001BD0008DFF48029E493A3F85407240CC8C33353
:1001CD00C4540F4420C8834004F456800146F6DF22
:1001DD00E4800B010204081020408090022DE47E83
:1001ED00019360BCA3FF543F30E509541FFEE49317
:1001FD00A360010ECF54C025E060A840B8E493A3DE
:10020D00FAE493A3F8E493A3C8C582C8CAC583CA08
:10021D00F0A3C8C582C8CAC583CADFE9DEE780BEC0
:01027100008C
:10000300E709F608DFFA8046E709F208DFFA803EDF
:1000130088828C83E709F0A3DFFA8032E309F608CC
:10002300DFFA8078E309F208DFFA807088828C8334
:10003300E309F0A3DFFA806489828A83E0A3F608E8
:10004300DFFA805889828A83E0A3F208DFFA804CC2
:1000530080D280FA80C680D4806980F28033801099
:1000630080A680EA809A80A880DA80E280CA803302
:1000730089828A83ECFAE493A3C8C582C8CCC5837A
:10008300CCF0A3C8C582C8CCC583CCDFE9DEE7804A
:100093000D89828A83E493A3F608DFF9ECFAA9F0C9
:1000A300EDFB2289828A83ECFAE0A3C8C582C8CC1F
:1000B300C583CCF0A3C8C582C8CCC583CCDFEADE38
:1000C300E880DB89828A83E493A3F208DFF980CC9A
:1000D30088F0EF60010E4E60C388F0ED2402B40493
:1000E3000050B9F582EB2402B4040050AF2323453A
:0600F3008223900053730C
:00000001FF
