:0300000002028178
:0C028100787FE4F6D8FD75810D0202C8FC
:0C03D100020A000002080000020C0000FC
:1003A700758911758CFF758AFFD2A9D2ABD28C12D1
:0703B700037612030D80F82C
:10030D00E4F58DF58B208504D28E80F9308504C2FD
:10031D008E80F9AF8DEFFEAD8B7C00E42DF509ECF1
:10032D003EF508FCAD091201B97B0A7AD779E3785D
:10033D003F12000EE4FBFA79C87842120117120140
:10034D00F28E0C8F0DE4F58DF58BC3E50D940FE555
:10035D000C648094805002C284D3E50D9404E50CA6
:09036D00648094804002D28422D5
:10037600C3E50B940DE50A648094805002D283D3C2
:10038600E50B940DE50A648094804002C283D3E5B0
:100396000B9432E50A648094804005E4F50AF50B77
:0103A6002234
:03000B000203BE2F
:1003BE00C0E0758CFF758AFF050BE50B7002050A10
:0303CE00D0E0324A
:10000E00EC4D6011E8497017ED33EC3304600DE4EC
:10001E00FCFFFEFD22E933E8330470F802025E12A3
:10002E00022958046009E4CC2481500628500902A4
:10003E000268284003020265C0E0EB4A7044B980B2
:10004E0006D0E0FB020254EF4E701CBD8008EBFFA1
:10005E00EAFEE9FD80EBE98DF0A4FEE5F00200F783
:10006E00E9CDF9EAFEEBFFEF89F0A4FCE5F0CE89CD
:10007E00F0A42EFFE435F0CD89F0A42DFEE435F08A
:10008E008067EF4E7005BD80D780C3EF8BF0A4ACB8
:10009E00F0EE8BF0A42CFCE435F0F8EF8AF0A42CF3
:1000AE00E5F038FCE433CB8DF0A42CFCE5F03BF806
:1000BE00EE8AF0A42CFCE5F038F8E433CF89F0A4F6
:1000CE002CFCE5F038CF3400CE89F0A42FFFE5F0FC
:1000DE003EFEE433C98DF0A42EFEE5F039CD8AF054
:1000EE00A42FFFE5F03EFEE43DFD33D0E0FB5007CC
:1000FE000BBB000F020268EC2CFCEF33FFEE33FE5D
:06010E00ED33FD0202408A
:10011400020268EC5D046005E85904700302025EA3
:10012400120229580460F6EC4860F2EC7004FDFEFB
:10013400FF22C860DB2481C85009C39860025006BE
:100144000202659850CAF582E9294B4A7005AB82D0
:1001540002025475F0007C1A7880C3EF9BEE9AED8E
:1001640099400DC3EF9BFFEE9AFEED99FDE842F036
:10017400DC23ACF0D0E0FFD0E0FED0E0FDAB822089
:10018400E7101BEB60BAEC2CFCEF33FFEE33FEED13
:1001940033FD020240E803F830E705C0F075F000D3
:1001A400EF2FFFEE33FEED33FD40B830E7C280AAF7
:1001B40075F020800E75F010800575F0087D007EC6
:1001C400007F003392D530D503120273EC33401014
:1001D400EF33FFEE33FEED33FDEC33FCD5F0ED22CF
:0E01E400E5F0247EA2D513CC92E7CDCEFF220B
:1001F200EDD2E7CD33EC3392D524814006E4FFFE05
:10020200FDFC22FCE4CFCECDCC24E0501174FF8063
:10021200EDC3CC13CCCD13CDCE13CECF13CF047000
:07022200F030D5DE0202738B
:10022900E9D2E7C933E833F892D5EDD2E7CD33EC1B
:0702390033FC5002B2D52294
:10024000EC30E7100FBF000C0EBE00080DBD00041F
:100250000BEB6014A2D5EB13FCED92E7FD2274FFCB
:10026000FCFDFEFF22E480F8A2D574FF13FC7D8024
:03027000E480EF38
:10028D000203A7E493A3F8E493A34003F68001F2DD
:10029D0008DFF48029E493A3F85407240CC8C33372
:1002AD00C4540F4420C8834004F456800146F6DF41
:1002BD00E4800B01020408102040809003D1E47EFD
:1002CD00019360BCA3FF543F30E509541FFEE49336
:1002DD00A360010ECF54C025E060A840B8E493A3FD
:1002ED00FAE493A3F8E493A3C8C582C8CAC583CA28
:1002FD00F0A3C8C582C8CAC583CADFE9DEE780BEE0
:0103DD00001F
:0E027300C3E49FFFE49EFEE49DFDE49CFC229C
:00000001FF
