:10021F0001010101010101010101010101010101BF
:02022F000101CB
:1000030078087C007D007BFF7A02791F7E007F09E0
:100013001201F978117C007D007BFF7A0279287E3A
:10002300007F091201F9C2A0D2A1D2A2A2A4E43393
:10003300F50865116013120231A2A4E433B5080672
:10004300E5117002B280850811A2A5E433F50965B4
:10005300126013120231A2A5E433B50906E512704A
:1000630002B281850912A2A6E433F50A651360136F
:10007300120231A2A6E433B50A06E5137002B28276
:10008300850A13D2A0C2A1D2A2A2A4E433F50B65C0
:10009300146013120231A2A4E433B50B06E5147005
:1000A30002B283850B14A2A5E433F50C6515601326
:1000B300120231A2A5E433B50C06E5157002B28431
:1000C300850C15A2A6E433F50D65166013120231F3
:1000D300A2A6E433B50D06E5167002B285850D16AA
:1000E300D2A0D2A1C2A2A2A4E433F50E6517601375
:1000F300120231A2A4E433B50E06E5177002B286EC
:10010300850E17A2A5E433F50F65187003020029C5
:10011300120231A2A5E433B50F06E5187002B287C7
:06012300850F18020029FF
:0E0231007FE87E03EF1FAC0670011E4C70F6D6
:01023F00229C
:03000000020240B9
:0C024000787FE4F6D8FD758119020003F8
:10012900E709F608DFFA8046E709F208DFFA803EB8
:1001390088828C83E709F0A3DFFA8032E309F608A5
:10014900DFFA8078E309F208DFFA807088828C830D
:10015900E309F0A3DFFA806489828A83E0A3F608C1
:10016900DFFA805889828A83E0A3F208DFFA804C9B
:1001790080D280FA80C680D4806980F28033801072
:1001890080A680EA809A80A880DA80E280CA8033DB
:1001990089828A83ECFAE493A3C8C582C8CCC58353
:1001A900CCF0A3C8C582C8CCC583CCDFE9DEE78023
:1001B9000D89828A83E493A3F608DFF9ECFAA9F0A2
:1001C900EDFB2289828A83ECFAE0A3C8C582C8CCF8
:1001D900C583CCF0A3C8C582C8CCC583CCDFEADE11
:1001E900E880DB89828A83E493A3F208DFF980CC73
:1001F90088F0EF60010E4E60C388F0ED2402B4046C
:100209000050B9F582EB2402B4040050AF23234512
:06021900822390017973BD
:00000001FF
