:020000040800F2
:1000000020040020450100087504000813040008BE
:10001000710400088D0100089B0900080000000021
:10002000000000000000000000000000250600089D
:1000300091010008000000002D0500089B07000842
:100040005F0100085F0100085F0100085F01000810
:100050005F0100085F0100085F0100085F01000800
:100060005F0100085F0100085F0100085F010008F0
:100070005F0100085F0100085F0100085F010008E0
:100080005F0100085F0100085F0100085F010008D0
:100090005F0100085F0100085F0100085F010008C0
:1000A0005F0100085F0100085F0100085F010008B0
:1000B0005F0100085F0100085F0100085F010008A0
:1000C0005F0100085F0100085F0100085F01000890
:1000D0005F0100085F0100085F0100085F01000880
:1000E0005F0100085F0100085F0100085F01000870
:1000F0005F0100085F0100085F0100085F01000860
:100100005F0100085F0100085F0100085F0100084F
:100110005F0100085F0100085F0100085F0100083F
:100120005F0100085F0100085F0100085F0100082F
:10013000DFF80CD000F018F8004800470D0B00085D
:10014000200400200648804706480047FEE7FEE7F7
:10015000FEE7FEE7FEE7FEE7FEE7FEE7FEE7FEE777
:100160009D07000831010008064C074D06E0E068D5
:1001700040F0010394E8070098471034AC42F6D3EE
:10018000FFF7DAFF4C0C00086C0C000800BFFEE71C
:1001900070470000002123498279002A3AD00A469C
:1001A000126803689A430B461A600A1D12680368B6
:1001B0009A430B1D1A60027911440A6803681A43B6
:1001C0000A60184A0832126803689A43154B0833CC
:1001D0001A601A1D126803689A43124B0C331A6096
:1001E0004279102A0ED11A1F126803681A430D4B68
:1001F00008331A601A1D126803681A43094B0C333E
:100200001A600DE00749427911440A6803681A43ED
:100210000A6005E0027911440A6803689A430A609B
:1002200070470000000401400EB50121052000F0D8
:100230007FF900F020F90120ADF8080004208DF8C6
:100240000B0002A9194800F055F80021084600F0FB
:1002500031F80120009000208DF8040008208DF86E
:10026000050001208DF806006846FFF793FF4FF464
:100270000050ADF8080004208DF80B0002A90C48CE
:1002800000F038F80D21022000F014F84FF400506F
:10029000009000208DF804000C208DF8050001204E
:1002A0008DF806006846FFF775FF0EBD0008014097
:1002B0000010014030B500228B071C0F0F2303FAFA
:1002C00004F20B4B8C1053F824309343084C8D10E0
:1002D00044F8253023468C1053F824308C07240F23
:1002E00000FA04F42343024C8D1044F8253030BD4D
:1002F000080001402DE9F0410246002500260020BB
:1003000000230024002791F803C00CF00F0591F89A
:1003100003C00CF0100CBCF1000F03D091F802C028
:100320004CEA050591F800C0BCF1000F31D014680B
:1003300000202BE04FF0010C0CFA00F3B1F800C0E4
:100340000CEA03069E4220D183004FF00F0C0CFAFA
:1003500003F7BC4305FA03FC4CEA040491F803C01C
:10036000BCF1280F06D14FF0010C0CFA00FCC2F8CA
:1003700014C00AE091F803C0BCF1480F05D14FF05A
:10038000010C0CFA00FCC2F810C0401C0828D1D3A4
:100390001460B1F800C0BCF1FF0F34DD54680020D8
:1003A0002EE000F1080C4FF0010808FA0CF3B1F848
:1003B00000C00CEA03069E4221D183004FF00F0CCF
:1003C0000CFA03F7BC4305FA03FC4CEA040491F869
:1003D00003C0BCF1280F05D100F1080C08FA0CF895
:1003E000C2F8148091F803C0BCF1480F07D100F1A6
:1003F000080C4FF0010808FA0CF8C2F81080401CF5
:100400000828CED35460BDE8F08141617047016196
:10041000704700BFFEE7000008B501210C2000F086
:1004200087F80120ADF8000010208DF803000320AC
:100430008DF8020069460C48FFF75CFF0220ADF81A
:10044000000069460848FFF755FF0420ADF800009A
:1004500069460648FFF74EFF1020ADF800006946D8
:100460000248FFF747FF08BD000C014000080140AB
:1004700000BFFEE7704708B54FF4C06000F04CF8CD
:1004800006208DF8000001208DF801008DF8020093
:100490008DF80300684600F007F828208DF800006A
:1004A000684600F001F808BD70B5002100230F2256
:1004B000C47804B3154C246804F4E064C4F5E06423
:1004C000210AC1F10403CA40447804FA03F1847894
:1004D0001440214309010E4C0678A155047804F01C
:1004E0001F050124AC4005786D11AD0005F1E02534
:1004F000C5F8004109E0047804F01F050124AC4070
:10050000044D0678761145F8264070BD0CED00E0EC
:1005100000E400E080E100E002490143024A11608A
:10052000704700000000FA050CED00E07047000085
:1005300029B1064A92690243044B9A6104E0034AD6
:1005400092698243014B9A6170470000001002409B
:1005500030B500210022002400232D4D6D6805F0E8
:100560000C0121B1042905D0082923D105E0294D2A
:10057000056022E0274D05601FE0254D6D6805F4FC
:100580007012234D6D6805F48034022505EB92420C
:100590001CB9214D554305600BE01D4D6D6805F4F8
:1005A00000351DB11C4D5543056002E0194D554302
:1005B000056002E0174D056000BF00BF144D6D6877
:1005C00005F0F0010909154D6B5C0568DD404560DB
:1005D0000F4D6D6805F4E061090A104D6B5C4568CC
:1005E000DD4085600A4D6D6805F46051C90A0B4D08
:1005F0006B5C4568DD40C560054D6D6805F44041A4
:10060000890B074D6B5CC568B5FBF3F5056130BD23
:100610000010024000127A0000093D000000002096
:1006200010000020704710B500F002F810BD000067
:100630000CB50020019000903348006840F48030F1
:100640003149086000BF3048006800F40030009075
:100650000198401C0190009818B90198B0F5A06F5E
:10066000F1D12948006800F4003010B10120009059
:1006700001E0002000900098012843D12348006841
:1006800040F01000214908600846006820F003008F
:1006900008600846006840F0020008601A48406898
:1006A000194948600846406848600846406840F478
:1006B000806048600846406820F47C104860084626
:1006C000406840F4E81048600846006840F08070D8
:1006D000086000BF0C48006800F000700028F9D0E6
:1006E0000948406820F00300074948600846406810
:1006F00040F00200486000BF0348406800F00C0072
:100700000828F9D10CBD0000001002400020024072
:1007100030B50146B1F1807F01D3012030BD21F019
:100720007F40401E4FF0E022506150170F220028FA
:1007300007DA13071D0E094B00F00F04241F1D5587
:1007400003E013071C0E064B1C5400BF00204FF0A3
:10075000E0229061072010610020DFE718ED00E043
:1007600000E400E070B504464820FFF7D1FF002503
:1007700008E000BF4FF0E020006900F4803000285E
:10078000F8D06D1CA542F4D34FF0E020006920F0B2
:1007900001004FF0E021086170BD704710B51348AB
:1007A000006840F00100114908600846406810499F
:1007B00008400E494860084600680E4908400B4949
:1007C00008600846006820F48020086008464068F9
:1007D00020F4FE0048604FF41F008860FFF723FFFD
:1007E0004FF000600449086010BD00000010024096
:1007F0000000FFF8FFFFF6FE08ED00E021B182895E
:1008000042F40052828104E082894DF6FF731A405F
:100810008281704700B585B001210420FFF788FE72
:1008200001218803FFF784FE4FF40070ADF810003B
:1008300018208DF8130003208DF8120004A9134826
:10084000FFF758FD4FF48060ADF8100004208DF8DC
:10085000130004A90D48FFF74DFD4FF4E13000905F
:100860000020ADF80400ADF80600ADF80800ADF8C2
:100870000C000C20ADF80A006946054800F018F895
:1008800001210348FFF7BAFF05B000BD0008014091
:100890000038014002460020B1F5007F00D100BFC2
:1008A00013880B400BB1012000E0002070470000CE
:1008B0002DE9F04786B005460E460024A24600BF4B
:1008C000A1460027B08900B100BF2F462C8A4CF604
:1008D000FF700440F08804432C82AC894EF6F3107C
:1008E0000440B08831890843718908430443AC81CE
:1008F000AC8A4FF6FF400440B0890443AC8201A8A3
:10090000FFF726FE1F48874202D1DDF810A001E064
:10091000DDF80CA0A88900F4004040B10AEBCA0041
:1009200000EB0A1031684900B0FBF1F807E00AEB70
:10093000CA0000EB0A1031688900B0FBF1F86420AE
:10094000B8FBF0F004012009642101FB1089A8899B
:1009500000F4004040B1322000EBC900B0FBF1F0E0
:1009600000F00700044308E0322000EB0910642186
:10097000B0FBF1F000F00F0004432C8106B0BDE89D
:10098000F08700000038014001468888C0F3080065
:100990007047C1F308028280704700BFFEE7000085
:1009A0000FB4054B10B503A9044A029800F017F8DC
:1009B00010BC5DF814FB0000CD0A00081C000020EC
:1009C00002E008C8121F08C1002AFAD17047704718
:1009D000002001E001C1121F002AFBD170472DE960
:1009E000F84F9946924688460546002706E0252896
:1009F0000AD051464A4690476D1C7F1C2878002833
:100A0000F5D13846BDE8F88F002315F8011F1846C8
:100A10002E2915D115F8011F04232A290DD06FF0B6
:100A20002F022978A1F13004092C09D800EB8000AD
:100A300002EB400008446D1CF3E758F8040B6D1CF2
:100A40002A78002ADDD0632A07D0732A0FD01046F7
:100A500051464A4690477F1C2AE018F8042B8DF82F
:100A6000002000218DF801106E46012103E058F8A6
:100A7000046B4FF0FF315A074FF0000401D409E036
:100A8000641C84420BDA8C42FADB325D002AF7D117
:100A900005E0641C8C42FCDB305D0028F9D1274462
:100AA00004E016F8010B51464A469047641EF8D2FE
:100AB0006D1CA3E710B5044620210348FFF7EAFEAA
:100AC0000148FFF761FF10BD0038014070B50446D2
:100AD0000D46E1B20548FFF75CFF00BF80210348E7
:100AE000FFF7D8FE0028F9D0204670BD003801403D
:100AF000FFF7E0BF10B504210348FFF786FC102183
:100B00000148FFF784FC10BD00080140FFF784FC9A
:100B1000FFF78AFBFFF77EFE04212348FFF777FCEF
:100B200010212148FFF771FC3DE001211F48FFF72C
:100B30006EFC02211D48FFF76AFC3220FFF712FE0F
:100B400001211A48FFF761FC02211848FFF75DFCFC
:100B50003220FFF707FE1648FFF7CAFF1549087055
:100B60000846017814A0FFF71BFF12480078D0B1A7
:100B7000104800783138052813D2DFE800F003066A
:100B8000090C0F0000F01CF80CE0FFF7B3FF09E0C0
:100B900000F050F806E000F041F803E000F01CF827
:100BA00000E000BF00BFC0E700080140000C0140AA
:100BB00018000020140000206368203D20256300F9
:100BC00010B504210348FFF722FC10210148FFF76C
:100BD0001CFC10BD0008014010B501210C48FFF7B6
:100BE00014FC02210A48FFF710FC0DE00948FFF74A
:100BF0007FFF0949087008460078302804D008466D
:100C00000078352800D000E0F0E700BF10BD0000FC
:100C1000000C0140180000201400002010B5102125
:100C20000348FFF7F4FB04210148FFF7F0FB10BD78
:100C30000008014010B504210348FFF7E6FB10212E
:100C40000148FFF7E2FB10BD000801406C0C0008F2
:100C50000000002020000000C00900088C0C0008E3
:100C60002000002000040000D0090008000000005F
:100C7000010203040102030406070809020406082E
:0C0C800001000000000000000000000067
:0400000508000131BD
:00000001FF
