:020000040800F2
:100000005004002045010008F1050008BD05000866
:10001000ED0500088D010008450E000800000000F5
:10002000000000000000000000000000BD07000804
:10003000BD0100080000000079060008A9080008BA
:100040005F0100085F0100085F0100085F01000810
:100050005F0100085F0100085F0100085F01000800
:10006000C10100085F0100085F0100085F0100088E
:100070005F0100085F0100085F0100085F010008E0
:100080005F0100085F0100085F0100085F010008D0
:100090005F0100085F0100085F0100085F010008C0
:1000A0005F0100085F0100085F0100085F010008B0
:1000B000050A00085F0100085F0100085F010008F1
:1000C0005F0100085F0100085F0100085F01000890
:1000D0005F0100085F0100085F0100085F01000880
:1000E0005F0100085F0100085F0100085F01000870
:1000F0005F0100085F0100085F0100085F01000860
:100100005F0100085F0100085F0100085F0100084F
:100110005F0100085F0100085F0100085F0100083F
:100120005F0100085F0100085F0100085F0100082F
:10013000DFF80CD000F018F800480047FD10000868
:10014000500400200648804706480047FEE7FEE7C7
:10015000FEE7FEE7FEE7FEE7FEE7FEE7FEE7FEE777
:100160002D09000831010008064C074D06E0E06843
:1001700040F0010394E8070098471034AC42F6D3EE
:10018000FFF7DAFF101300083013000800BFFEE786
:1001900008B50121080200F081FA10208DF8030053
:1001A00003208DF802004FF4A870ADF800006946F6
:1001B000014800F06BF908BD0020014070470000C5
:1001C00010B5042000F028F820B104480068401C55
:1001D00002490860042000F019F810BD2C0000202E
:1001E00008B54FF4A06000F03DFA08208DF800003B
:1001F00001208DF8010000208DF8020001208DF80B
:100200000300684600F0F6F908BD000001490860E7
:100210007047000014040140014600200022074BF3
:100220001B6803EA0102054B14331B680B4013B132
:100230000AB1012000E000207047000000040140E6
:10024000002123498279002A3AD00A4612680368BD
:100250009A430B461A600A1D126803689A430B1DE5
:100260001A60027911440A6803681A430A60184A3E
:100270000832126803689A43154B08331A601A1D36
:10028000126803689A43124B0C331A604279102AA1
:100290000ED11A1F126803681A430D4B08331A60F7
:1002A0001A1D126803681A43094B0C331A600DE0DB
:1002B0000749427911440A6803681A430A6005E055
:1002C000027911440A6803689A430A607047000083
:1002D000000401400EB5012140F2011000F0DEF9EA
:1002E000FFF77EFF0420ADF8080048208DF80B00D2
:1002F00002A90B4800F0CAF80221062000F0A6F877
:100300000420009000208DF804000C208DF80500DA
:1003100001208DF806006846FFF792FF0EBD000031
:10032000002001401CB50221062000F08FF80420B7
:10033000009000208DF804000C208DF805000020AE
:100340008DF806006846FFF77BFF1CBD1CB5022137
:10035000062000F07BF80420009000208DF80400B7
:100360000C208DF8050001208DF806006846FFF787
:1003700067FF1CBD08B50121082000F08FF901209E
:10038000ADF8000018208DF8030003208DF802005E
:1003900069460A4800F07AF80121082000F07EF949
:1003A0000220ADF8000018208DF8030003208DF81E
:1003B00002006946014800F069F808BD000C0140E0
:1003C00010B5FFF7D7FF00F001F810BD30B587B0CA
:1003D0000121022000F052F94FF4FA70ADF8140038
:1003E0004720ADF810000020ADF81600ADF812005F
:1003F0008DF8180004A9144800F00EFC0025002414
:100400006020ADF800000120ADF802000020ADF83A
:100410000800ADF8065069460B4800F053FB082170
:10042000094800F09FFBADF806406946064800F019
:10043000A3FB0821044800F0DDFB0121024800F085
:100440001BFB07B030BD00000004004030B50022A7
:100450008B071C0F0F2303FA04F20B4B8C1053F87D
:1004600024309343084C8D1044F8253023468C10DB
:1004700053F824308C07240F00FA04F42343024C71
:100480008D1044F8253030BD080001402DE9F041C1
:10049000024600250026002000230024002791F8B2
:1004A00003C00CF00F0591F803C00CF0100CBCF168
:1004B000000F03D091F802C04CEA050591F800C086
:1004C000BCF1000F31D0146800202BE04FF0010C7C
:1004D0000CFA00F3B1F800C00CEA03069E4220D1EA
:1004E00083004FF00F0C0CFA03F7BC4305FA03FC32
:1004F0004CEA040491F803C0BCF1280F06D14FF078
:10050000010C0CFA00FCC2F814C00AE091F803C018
:10051000BCF1480F05D14FF0010C0CFA00FCC2F8F9
:1005200010C0401C0828D1D31460B1F800C0BCF141
:10053000FF0F34DD546800202EE000F1080C4FF06E
:10054000010808FA0CF3B1F800C00CEA03069E4259
:1005500021D183004FF00F0C0CFA03F7BC4305FACE
:1005600003FC4CEA040491F803C0BCF1280F05D148
:1005700000F1080C08FA0CF8C2F8148091F803C0D6
:10058000BCF1480F07D100F1080C4FF0010808FA40
:100590000CF8C2F81080401C0828CED35460BDE887
:1005A000F0810246002093680B400BB1012000E06F
:1005B00000207047416170470161704700BFFEE74E
:1005C00070B504460D462146064800F022FB25B1D1
:1005D00004210548FFF7F0FF03E004210248FFF77C
:1005E000E9FF70BD000400400008014000BFFEE7C5
:1005F0007047000070B5002100230F22C47804B3B7
:10060000154C246804F4E064C4F5E064210AC1F1E7
:100610000403CA40447804FA03F184781440214367
:1006200009010E4C0678A155047804F01F05012439
:10063000AC4005786D11AD0005F1E025C5F800412D
:1006400009E0047804F01F050124AC40044D06784D
:10065000761145F8264070BD0CED00E000E400E0A6
:1006600080E100E002490143024A11607047000046
:100670000000FA050CED00E07047000029B1064AC1
:10068000D2690243044BDA6104E0034AD26982432F
:10069000014BDA61704700000010024029B1064AA0
:1006A00092690243044B9A6104E0034A92698243CF
:1006B000014B9A61704700000010024030B50021E4
:1006C0000022002400232D4D6D6805F00C0121B19E
:1006D000042905D0082923D105E0294D056022E031
:1006E000274D05601FE0254D6D6805F47012234D00
:1006F0006D6805F48034022505EB92421CB9214D4A
:10070000554305600BE01D4D6D6805F400351DB1C6
:100710001C4D5543056002E0194D5543056002E04C
:10072000174D056000BF00BF144D6D6805F0F00166
:100730000909154D6B5C0568DD4045600F4D6D681E
:1007400005F4E061090A104D6B5C4568DD40856089
:100750000A4D6D6805F46051C90A0B4D6B5C456824
:10076000DD40C560054D6D6805F44041890B074DBE
:100770006B5CC568B5FBF3F5056130BD0010024048
:1007800000127A0000093D0014000020240000201F
:1007900070B504460D462146064800F038FA25B1EA
:1007A00010210548FFF708FF03E010210248FFF77A
:1007B00001FF70BD0004004000080140704710B503
:1007C00000F002F810BD00000CB500200190009070
:1007D0003348006840F480303149086000BF304839
:1007E000006800F4003000900198401C01900098CF
:1007F00018B90198B0F5A06FF1D12948006800F44C
:10080000003010B10120009001E00020009000981D
:10081000012843D12348006840F0100021490860B6
:100820000846006820F0030008600846006840F0B1
:10083000020008601A484068194948600846406844
:1008400048600846406840F4806048600846406858
:1008500020F47C1048600846406840F4E810486086
:100860000846006840F08070086000BF0C480068CF
:1008700000F000700028F9D00948406820F003001B
:10088000074948600846406840F00200486000BFE1
:100890000348406800F00C000828F9D10CBD0000A6
:1008A000001002400020024010B500F007FA10BD11
:1008B00030B51A4800681A4AB0FBF2F1B1F1807FF6
:1008C00001D301201DE021F07F40401E4FF0E022C7
:1008D000506150170F22002807DA13071D0E114B25
:1008E00000F00F04241F1D5503E013071C0E0E4BD0
:1008F0001C5400BF00204FF0E022906107201061DF
:10090000002008B100BFFEE74FF0E020006920F0B2
:1009100001004FF0E021086130BD00000000002020
:1009200040420F0018ED00E000E400E010B513486D
:10093000006840F00100114908600846406810490D
:1009400008400E494860084600680E4908400B49B7
:1009500008600846006820F4802008600846406867
:1009600020F4FE0048604FF41F008860FFF727FF67
:100970004FF000600449086010BD00000010024004
:100980000000FFF8FFFFF6FE08ED00E010B50020C4
:100990000549086005490870FFF7D8FC01210846A1
:1009A000FFF76CFE10BD0000400000204C0000204E
:1009B0000EB501210846FFF761FE00F043F84FF441
:1009C0007A70ADF804004720ADF800000020ADF8C3
:1009D0000600ADF8020069464FF0804000F01CF9B7
:1009E0000121880700F042F801221146900700F02B
:1009F00060F80121880700F03FF800210120FFF78F
:100A00003DFE0EBD10B50121880700F041F818B178
:100A100001200949087002E00020074908700748D2
:100A20000068074908600020044908600121880720
:100A300000F01FF810BD00004C0000202C0000202A
:100A40004000002008B54FF4A060FFF70BFE1C200B
:100A50008DF8000000208DF801008DF802000120C3
:100A60008DF803006846FFF7C5FD08BDCA43028242
:100A70007047CA430282704721B1028842F00102E6
:100A8000028004E002884FF6FE731A40028070472D
:100A900030B50246002000230024158A05EA010330
:100AA000958905EA010413B10CB1012000E0002092
:100AB00030BD1AB183890B43838102E083898B4364
:100AC0008381704770B5002400220023058C4FF607
:100AD000FF6635400584028C8388848B4FF68F75C2
:100AE0002C404FF6FC752C400D882C434FF6FF55DB
:100AF0002A400D894FF6FF7606EA05252A434D88E0
:100B000006EA05252A43154DA84202D0144DA842F5
:100B10001DD14FF2FF752A404D894FF6FF7606EA48
:100B200005252A434FF6FF352A408D8806EA05251C
:100B30002A434EF6FF752B404DF6FF752B408D89ED
:100B400006EA05152B43CD8906EA05152B4383805C
:100B50008483CD888587028470BD0000002C01400D
:100B6000003401400A460021818B4FF6F77319408B
:100B7000114381837047000070B5002200230024D8
:100B8000058C4EF6FF7635400584038C8488828B75
:100B900048F6FF752A404FF6FF452A400D884FF66C
:100BA000FF7606EA05252A434DF6FF752B400D8991
:100BB00006EA05352B434D8806EA05352B430B4DD8
:100BC000A84202D00A4DA84208D14BF6FF752C402E
:100BD0008D894FF6FF7606EA85152C438480828343
:100BE000CD88A0F84050038470BD0000002C014067
:100BF000003401400A460021818B4FF2FF731940F7
:100C00004FF6FF7303EA02231943818370478187FC
:100C10007047A0F840107047002202881D4B984290
:100C20000ED01D4B98420BD0B0F1804F08D01B4B1B
:100C3000984205D01A4B984202D01A4B984204D1E0
:100C40004FF68F731A404B881A43174B984207D0C0
:100C5000164B984204D04FF6FF431A40CB881A43F4
:100C600002808B8883850B8803850A4B98420BD0C2
:100C7000094B984208D00E4B984205D00D4B984234
:100C800002D00D4B984201D10B7A03860123838257
:100C900070470000002C0140003401400004004077
:100CA00000080040000C004000100040001400400C
:100CB00000400140004401400048014004480068F1
:100CC00020B103480068401E0149086070470000D9
:100CD0003800002021B1828942F40052828104E070
:100CE00082894DF6FF731A408281704700B585B046
:100CF00001210420FFF7D2FC01218803FFF7CEFC7D
:100D00004FF40070ADF8100018208DF81300032088
:100D10008DF8120004A91348FFF7B8FB4FF4806068
:100D2000ADF8100004208DF8130004A90D48FFF75A
:100D3000ADFB4FF4E13000900020ADF80400ADF8B9
:100D40000600ADF80800ADF80C000C20ADF80A0064
:100D50006946054800F00AF801210348FFF7BAFF89
:100D600005B000BD00080140003801402DE9F04702
:100D700086B005460E460024A24600BFA1460027C5
:100D8000B08900B100BF2F462C8A4CF6FF7004409A
:100D9000F08804432C82AC894EF6F3100440B088EE
:100DA00031890843718908430443AC81AC8A4FF60A
:100DB000FF400440B0890443AC8201A8FFF77EFCE9
:100DC0001F48874202D1DDF810A001E0DDF80CA039
:100DD000A88900F4004040B10AEBCA0000EB0A10F9
:100DE00031684900B0FBF1F807E00AEBCA0000EBFC
:100DF0000A1031688900B0FBF1F86420B8FBF0F00C
:100E000004012009642101FB1089A88900F4004035
:100E100040B1322000EBC900B0FBF1F000F0070058
:100E2000044308E0322000EB09106421B0FBF1F02C
:100E300000F00F0004432C8106B0BDE8F0870000ED
:100E40000038014000BFFEE708B501210420FFF78C
:100E500025FC0420ADF8000010208DF803000320CD
:100E60008DF8020069460748FFF710FB01210420B6
:100E7000FFF714FC1020ADF8000069460148FFF7A9
:100E800005FB08BD0008014002E008C8121F08C1A8
:100E9000002AFAD170477047002001E001C1121FFB
:100EA000002AFBD1704710B5FFF782FDFFF7CAFD9E
:100EB000FFF76EF9FFF794F9FFF70CFA00F00CF862
:100EC000FFF764FDFFF742FAFFF72CFAFFF70EFF7A
:100ED000FFF7EEFC10BD000010B5FFF769FDFFF74E
:100EE00057F9FFF7F7F900200149086010BD00002D
:100EF000A001244201B50849009808604FF0E020A5
:100F0000006940F001004FF0E021086100BF024895
:100F100000680028FBD108BD3800002010B500F0A3
:100F200013F800F037F800F047F800F057F800F039
:100F300067F800F077F800F087F800F097F800F015
:100F4000A7F800F013F810BD08B501218020FFF7C5
:100F5000A5FB0120ADF8000028208DF803006946AC
:100F60000148FFF793FA08BD001C014008B50121B4
:100F70008020FFF793FB4FF48070ADF8000028202D
:100F80008DF8030069460248FFF780FA08BD0000AB
:100F9000001C014008B501218020FFF77FFB0120E4
:100FA000ADF8000028208DF8030069460148FFF7DE
:100FB0006DFA08BD001C014008B501218020FFF733
:100FC0006DFB0220ADF8000028208DF80300694673
:100FD0000148FFF75BFA08BD001C014008B501217C
:100FE0004020FFF75BFB0420ADF8000028208DF8BF
:100FF000030069460148FFF749FA08BD001801409F
:1010000008B501214020FFF749FB1020ADF8000092
:1010100028208DF8030069460148FFF737FA08BD1C
:101020000018014008B501218020FFF737FB102090
:10103000ADF8000028208DF8030069460148FFF74D
:1010400025FA08BD001C014008B501218020FFF7EA
:1010500025FB2020ADF8000028208DF8030069460C
:101060000148FFF713FA08BD001C014008B5012133
:101070008020FFF713FB4020ADF8000028208DF8FA
:10108000030069460148FFF701FA08BD001C014052
:1010900008B501218020FFF701FB8020ADF800009A
:1010A00028208DF8030069460148FFF7EFF908BDD5
:1010B000001C014070B50446002515E000F07EF8E4
:1010C00080210B4800F05AF8012804D1681CC5B2F1
:1010D0000848FFF70FFFA54206DB002500F05AF88D
:1010E0000548FFF707FF00E0E8E700BF70BD00001C
:1010F000001C0140400D030080841E0010B5002438
:10110000FFF7A2FEFFF75CF9FFF7F0FDFFF706FF20
:10111000FFF7C9FE00F028F80420FFF7CBFF1AE024
:1011200000F042F801210E4800F028F801280DD106
:10113000601CC4B20B48FFF7DDFE05E00121084842
:1011400000F01CF800B900E0F8E700BF022C02DB59
:1011500000F020F800E0E3E700BF002010BD000031
:10116000001C0140A086010010B501210A20FFF7F4
:1011700027FA00210A20FFF70BFB10BD70B50546CA
:101180000C46A1B22846FFF70CFA08B9002070BD42
:101190000120FCE710B501210020FFF711FA012121
:1011A0000020FFF7F5FA10BD10B500210A20FFF767
:1011B00007FA00210A20FFF7EBFA10BD10B5012154
:1011C0005148FFF7DBFF01280BD002214E48FFF703
:1011D000D5FF012805D004214C48FFF7CFFF012897
:1011E00016D110214948FFF7C9FF88B91021464898
:1011F000FFF7C4FF60B920214348FFF7BFFF38B9AC
:1012000001210A20FFF7DCF900210846FFF7C0FAA8
:1012100001213D48FFF7B2FF18BB02213A48FFF712
:10122000ADFFF0B904213948FFF7A8FFC8B9102174
:101230003648FFF7A3FF01280BD010213248FFF7F3
:101240009DFF012805D020212F48FFF797FF012897
:1012500007D101210020FFF7B3F900210A20FFF791
:1012600097FA01212848FFF789FF00BB0221264891
:10127000FFF784FFD8B904212448FFF77FFFB0B9F6
:1012800010212248FFF77AFF88B910211E48FFF786
:1012900075FF60B920211C48FFF770FF38B90121A4
:1012A0000A20FFF78DF900210A20FFF771FA0121CA
:1012B0001548FFF763FF01280BD002211248FFF702
:1012C0005DFF012805D004211048FFF757FF0128D2
:1012D00019D110210D48FFF751FF01280BD0102123
:1012E0000948FFF74BFF012805D020210648FFF7EA
:1012F00045FF012807D101210A20FFF761F90021EC
:101300000A20FFF745FA10BD001C014000180140FB
:10131000301300080000002050000000880E000874
:10132000801300085000002000040000980E000800
:1013300000A24A04000000000000000001020304B3
:10134000060708090000000001020304010203046B
:10135000060708090204060800000000000000005B
:10136000000000000000000000000000000000007D
:10137000000000000000000000000000000000006D
:0400000508000131BD
:00000001FF
