:020000040800F2
:1000000050060020450100089114000893140008D0
:10001000971400089B1400089F14000800000000BB
:10002000000000000000000000000000A314000811
:10003000A514000800000000A7140008A914000877
:100040005F0100085F0100085F0100085F01000810
:100050005F0100085F0100085F0100085F01000800
:100060005F0100085F0100085F0100085F010008F0
:100070005F0100085F0100085F0100085F010008E0
:100080005F0100085F0100085F0100085F010008D0
:100090005F0100085F0100085F0100085F010008C0
:1000A0005F0100085F0100085F0100085F010008B0
:1000B0005F0100085F0100085F0100085F010008A0
:1000C0005F0100085F0100085F0100085F01000890
:1000D0005F0100085F0100085F0100085F01000880
:1000E0005F0100085F0100085F0100085F01000870
:1000F0005F0100085F0100085F0100085F01000860
:100100005F0100085F0100085F0100085F0100084F
:100110005F0100085F0100085F0100085F0100083F
:100120005F0100085F0100085F0100085F0100082F
:10013000DFF80CD001F07AFD0048004717130008E3
:10014000500600200648804706480047FEE7FEE7C5
:10015000FEE7FEE7FEE7FEE7FEE7FEE7FEE7FEE777
:1001600047020008310100080CB500200190009002
:100170006C48006840F480306A49086000BF6948F4
:10018000006800F4003000900198401C0190009835
:1001900018B90198B0F5A06FF1D16248006800F479
:1001A000003010B10120009001E000200090009884
:1001B000012843D15C48006840F010005A490860AB
:1001C0000846006820F0030008600846006840F018
:1001D0000200086053484068524948600846406839
:1001E00048600846406840F48060486008464068BF
:1001F00020F47C1048600846406840F4E8104860ED
:100200000846006840F08070086000BF45480068FC
:1002100000F000700028F9D04248406820F0030048
:10022000404948600846406840F00200486000BF0E
:100230003C48406800F00C000828F9D10CBD10B50E
:10024000FFF792FF10BD10B53648006840F001007E
:1002500034490860084640683449084031494860DC
:1002600008460068324908402E4908600846006880
:1002700020F4802008600846406820F4FE004860B2
:100280004FF41F008860FFF7DAFF4FF00060294944
:10029000086010BD10B5002100200022214B5B68D2
:1002A00003F00C0121B1042906D0082928D107E068
:1002B000214B224C236027E01F4B204C236023E07E
:1002C000184B5B6803F47010164B5B6803F48032C4
:1002D000022303EB904022B9194B4343174C236090
:1002E0000DE0104B5B6803F4003323B1144B434320
:1002F000124C236003E0104B4343104C236003E097
:100300000D4B0E4C236000BF00BF064B5B68C3F370
:1003100003130C4CE15C094B1B68CB40074C23607A
:1003200010BD000000100240002002400000FFF855
:10033000FFFFF6FE08ED00E000127A00000000204A
:1003400000093D000400002010B50446CC4884425A
:1003500008D10121042000F02FFD0021042000F02D
:100360002BFD46E0C748844208D10121082000F057
:1003700023FD0021082000F01FFD3AE0C24884421E
:1003800008D10121102000F017FD0021102000F0FD
:1003900013FD2EE0BD48844208D10121202000F049
:1003A0000BFD0021202000F007FD22E0B848844228
:1003B00008D10121402000F0FFFC0021402000F086
:1003C000FBFC16E0B348844208D10121802000F0F4
:1003D000F3FC0021802000F0EFFC0AE0AE488442EC
:1003E00007D10121801500F0E7FC0021A01500F0E5
:1003F000E3FC10BD10B50121084600F0DDFC002132
:10040000012000F0D9FC10BD2DE9F0410246002585
:100410000026002000230024002791F803C00CF0E0
:100420000F0591F803C00CF0100CBCF1000F03D0C5
:1004300091F802C04CEA050591F800C0BCF1000F2C
:1004400031D0146800202BE04FF0010C0CFA00F3BF
:10045000B1F800C00CEA03069E4220D183004FF0A1
:100460000F0C0CFA03F7BC4305FA03FC4CEA040436
:1004700091F803C0BCF1280F06D14FF0010C0CFA23
:1004800000FCC2F814C00AE091F803C0BCF1480FA8
:1004900005D14FF0010C0CFA00FCC2F810C0401C52
:1004A0000828D1D31460B1F800C0BCF1FF0F34DDCF
:1004B000546800202EE000F1080C4FF0010808FA03
:1004C0000CF3B1F800C00CEA03069E4221D1830070
:1004D0004FF00F0C0CFA03F7BC4305FA03FC4CEA8F
:1004E000040491F803C0BCF1280F05D100F1080CF9
:1004F00008FA0CF8C2F8148091F803C0BCF1480F58
:1005000007D100F1080C4FF0010808FA0CF8C2F806
:100510001080401C0828CED35460BDE8F0814FF60F
:10052000FF710180022181700421C1707047024671
:10053000002093680B400BB1012000E000207047C1
:100540000146886880B2704702460020D3680B409D
:100550000BB1012000E0002070470146C86880B25E
:10056000704701617047416170470AB1016100E065
:1005700041617047C16070474FF480320A43826125
:100580008161826182698269704702460020434B23
:1005900018684FF68073184040EA021008433F4B3A
:1005A000186070473E49C8617047F0B50A4600239D
:1005B00000240021002500F00046B6F1004F02D1D2
:1005C000364EF16901E0354E7168C0F3034583B2E0
:1005D00000F44016B6F5401F08D121F070612F4E8F
:1005E000766826F070662D4F7E6012E000F480166B
:1005F000B6F5801F06D1032606FA05F4A14341F0A3
:10060000706106E0460D360103FA06F6B14341F08B
:10061000706122B1460D360103FA06F6314300F04F
:100620000046B6F1004F02D11C4EF16101E01B4EB5
:100630007160F0BD30B500228B071C0F0F2303FA49
:1006400004F2164B08338C1053F824309343134CA8
:1006500008348D1044F8253023468C1053F824308C
:100660008C07240F00FA04F423430C4C08348D103B
:1006700044F8253030BD0A49DC310860704700007D
:1006800000080140000C014000100140001401402E
:1006900000180140001C0140002001400000014002
:1006A0000000204210B50446F748844209D10121D8
:1006B000480500F08EFB00214FF4001000F089FB8C
:1006C00008E00121880500F084FB00214FF4800040
:1006D00000F07FFB10BD2DE9F04385B004460D46C8
:1006E0000026B1460427DFF8A483A6884FF6C07021
:1006F0000640684600F0D9FADDF80880E448B8FB07
:10070000F0F01FFA80F946EA0906A68020884FF625
:10071000FE71084020800026DE49286888420CD8F7
:1007200028684000B8FBF0F087B2042F00DA0427F5
:100730003E4309F10100208427E0E8884BF6FF7171
:10074000884206D1286800EB4000B8FBF0F087B281
:1007500009E0286800EBC00101EB0010B8FBF0F0E5
:1007600087B247F48047C7F30B0008B947F0010789
:1007700047F4004006434FF4967009FB00F04FF435
:100780007A7190FBF1F0401C2084A683208840F011
:100790000100208026884FF6F5300640A888698938
:1007A000084306432680A88929890843208105B08B
:1007B000BDE8F08341F288310160002181804BF671
:1007C000FF71C1800021018141814FF4804181810D
:1007D000704721B1028842F00102028004E00288E1
:1007E0004FF6FE731A400280704721B1828842F4AE
:1007F0000062828004E082884FF2FF731A40828098
:10080000704721B1828842F48052828004E082885D
:100810004EF6FF731A408280704721B1028842F47D
:100820008072028004E002884FF6FF631A40028063
:10083000704721B1028842F40072028004E002880D
:100840004FF6FF531A400280704721B1028842F4EC
:100850008062028004E002884FF6FF331A40028073
:1008600070470A46002181894FF60173194002F052
:10087000FE0319438181704721B1828942F0010250
:10088000828104E082894FF6FE731A4082817047AC
:1008900021B1028842F04002028004E002884FF653
:1008A000BF731A40028070471AB183880B4383805C
:1008B00002E083888B438380704701827047014642
:1008C000088AC0B2704712B141F0010102E04FF650
:1008D000FE7319400182704708B50246002000905F
:1008E00000920098084400900098008808BD21B14B
:1008F000028842F40042028003E00288C2F30E0242
:1009000002807047B1F5006F04D1028842F40062A2
:10091000028004E002884FF2FF731A4002807047A1
:10092000B1F5005F04D1028842F40052028004E075
:1009300002884DF6FF731A400280704721B1028889
:1009400042F48052028004E002884EF6FF731A409F
:1009500002807047B1F5006F04D1028842F4006252
:10096000028004E002884FF2FF731A400280704751
:1009700021B1028842F02002028004E002884FF692
:10098000DF731A40028070470146088B00127047DF
:1009900021B1028842F01002028004E002884FF682
:1009A000EF731A400280704721B9028842F080023A
:1009B000028004E002884FF67F731A40028070477D
:1009C000B1F5804F05D0828B4BF6FF731A408283BE
:1009D00003E0828B42F480428283704770B5024606
:1009E0000024002500230020958A138B1B0445EA70
:1009F000030626F07F4404EA01068E4201D101205D
:100A000000E0002070BD10B5014600200023002248
:100A10008B8A0A8B120443EA020424F07F4010BD43
:100A20000CB50246002000230193009300920B0FA7
:100A3000019321F07F41019B1BB1009B1433009374
:100A400003E0090C009B18330093009B1B680B40CC
:100A50000BB1012000E000200CBD002221F07F42FC
:100A6000D3438382704730B5024600200023948828
:100A700001F0E06504EA154321F07F41948A0C40BF
:100A800054B14BB1012008E00054004000127A003C
:100A900040420F00A0860100002030BD002221F05E
:100AA0007F42D34383827047DF48006840F00100F3
:100AB000DD49086008464068DC490840DA4948607A
:100AC00008460068DA490840D749086008460068C7
:100AD00020F4802008600846406820F4FE0048604A
:100AE0004FF41F0088607047CF49096821F48031B6
:100AF000CD4A11601146096821F480211160B0F5DA
:100B0000803F03D0B0F5802F0ED106E0C6490968BA
:100B100041F48031C44A116007E0C349096841F4D7
:100B2000A021C14A116000E000BF00BF704710B5AE
:100B300001460022002300204A11012A02D1BA4CAA
:100B4000236806E0022A02D1B74C236A01E0B64CC2
:100B5000636A01F01F02012494401C400CB1012083
:100B600000E0002010BD38B50020009000240025D2
:100B700000BF3120FFF7DBFF05460098401C0090C6
:100B80000098B0F5A06F01D0002DF2D03120FFF712
:100B9000CEFF08B1012400E00024204638BD014604
:100BA0000020A14A106820F0F80040EAC10010605F
:100BB0007047A04908607047024600209A4B586869
:100BC00020F47C1042EA01031843974B58607047A9
:100BD00098490866704701460020934A506820F003
:100BE00003000843506070478F48406800F00C00D5
:100BF0007047014600208C4A506820F0F0000843FE
:100C00005060704701460020874A506820F4E06039
:100C100008435060704701460020834A506820F422
:100C2000605040EAC1005060704729B17E4A527A54
:100C300002437D4B5A7204E07B4A527A82437A4BDC
:100C40005A7270477B49D8310860704701460020CE
:100C5000754A506820F440400843506070470021B6
:100C6000714A20321170704A82F82010012802D097
:100C700004280AD104E001216B4A2032117005E0FA
:100C80000521694A2032117000E000BF00BF7047A3
:100C90006949086070476449096A0143624A116200
:100CA0007047654944390860704730B5002100221B
:100CB000002400235C4D6D6805F00C0121B104296E
:100CC00005D0082923D105E05C4D056022E05B4D8D
:100CD00005601FE0544D6D6805F47012524D6D684B
:100CE00005F48034022505EB92421CB9544D55435E
:100CF00005600BE04C4D6D6805F400351DB1504D9D
:100D00005543056002E04D4D5543056002E04B4DF3
:100D1000056000BF00BF444D6D6805F0F001090992
:100D2000484D6B5C0568DD4045603F4D6D6805F4DE
:100D3000E061090A434D6B5C4568DD4085603A4DD2
:100D40006D6805F46051C90A3E4D6B5C4568DD4035
:100D5000C560354D6D6805F44041890B3A4D6B5CBB
:100D6000C568B5FBF3F5056130BD29B12E4A52695E
:100D700002432D4B5A6104E02B4A526982432A4BAD
:100D80005A61704729B1284A92690243264B9A61F9
:100D900004E0254A92698243234B9A61704729B146
:100DA000214AD2690243204BDA6104E01E4AD2692B
:100DB00082431D4BDA61704729B11B4AD268024356
:100DC000194BDA6004E0184AD2688243164BDA60A5
:100DD000704729B1144A12690243134B1A6104E0A7
:100DE000114A12698243104B1A6170471249403907
:100DF000086070470F49C86470470B49C871704755
:100E00000948406A40F080700749486270470146CF
:100E10000020054A92680A400AB1012000E0002043
:100E20007047014988727047001002400000FFF8C7
:100E3000FFFFF6FE000042428004424200127A00A8
:100E400000093D00140000202400002010B50446D5
:100E5000FB48844209D101218803FFF7ADFF00213F
:100E60004FF48040FFF7A8FF32E0F648844209D1F2
:100E700001214804FFF7ADFF00214FF40030FFF7D8
:100E8000A8FF25E0F048844209D101218804FFF73A
:100E9000A0FF00214FF48020FFF79BFF18E0EB48F4
:100EA000844209D10121C804FFF793FF00214FF4C8
:100EB0000020FFF78EFF0BE0E548844208D10121B6
:100EC0000805FFF786FF00214FF48010FFF781FF30
:100ED00010BD2DE9F04786B005460E460024A24617
:100EE00000BFA1460027B08900B100BF2F462C8A61
:100EF0004CF6FF700440F08804432C82AC894EF617
:100F0000F3100440B08831890843718908430443D1
:100F1000AC81AC8A4FF6FF400440B0890443AC82F8
:100F200001A8FFF7C2FEC648874202D1DDF810A033
:100F300001E0DDF80CA0A88900F4004040B10AEB04
:100F4000CA0000EB0A1031684900B0FBF1F807E075
:100F50000AEBCA0000EB0A1031688900B0FBF1F817
:100F60006420B8FBF0F004012009642101FB108922
:100F7000A88900F4004040B1322000EBC900B0FB6A
:100F8000F1F000F00700044308E0322000EB091004
:100F90006421B0FBF1F000F00F0004432C8106B097
:100FA000BDE8F0874FF41651016000218180C180B7
:100FB00001810C21418100218181704710B50246D9
:100FC0000020108A4FF2FF0318400B884C882343FF
:100FD0008C882343CC8823431843108210BD002102
:100FE000018041808180C180704721B1828942F4B3
:100FF0000052828104E082894DF6FF731A4082819B
:101000007047F0B50346002400260025002040F676
:101010006A17B94200D100BF1846C1F3421401F06B
:101020001F06012707FA06F5012C01D10C3004E058
:10103000022C01D1103000E014301AB107682F43A0
:10104000076002E00768AF430760F0BD1AB1838A0A
:101050000B43838202E0838A8B4383827047028A38
:101060004FF6F0731A400282028A0A4302827047E6
:1010700082894FF2FF731A40828182890A438281FA
:10108000704721B1828942F00202828104E08289A4
:101090004FF6FD731A4082817047028A4FF6DF7364
:1010A0001A400282028A0A430282704721B1028AF0
:1010B00042F48042028204E0028A4BF6FF731A4037
:1010C00002827047C1F30802828070470146888817
:1010D000C0F308007047818941F0010181817047A8
:1010E000028BD2B20283028B42EA01220283704752
:1010F000028B02F47F420283028B0A430283704711
:1011000021B1828A42F02002828204E0828A4FF674
:10111000DF731A408282704721B1828A42F0100246
:10112000828204E0828A4FF6EF731A40828270470F
:1011300021B1828A42F00802828204E0828A4FF65C
:10114000F7731A408282704721B1828942F40042CB
:10115000828103E08289C2F30E028281704721B14D
:10116000828A42F40062828204E0828A4FF2FF7334
:101170001A4082827047828A4FF6FB731A4082823D
:10118000828A0A438282704721B1828A42F0020237
:10119000828204E0828A4FF6FD731A408282704791
:1011A00002460020B1F5007F00D100BF13880B403C
:1011B0000BB1012000E00020704701F40072B2F58D
:1011C000007F00D100BFCA430280704770B502465D
:1011D000002400230025002040F66A16B14200D109
:1011E00000BFC1F3421501F01F03012606FA03F305
:1011F000012D02D19689334006E0022D02D1168AD4
:10120000334001E0968A33400C12012606FA04F4BA
:101210001688344013B10CB1012000E0002070BDED
:1012200010B50022002340F66A14A14200D100BF8D
:101230000A1201249440A3B2DC43048010BD0000D4
:10124000003801400044004000480040004C00408D
:101250000050004010B546A000F0FAFC002415E054
:101260004748005D474908550846015D46A000F023
:10127000EFFCE11704EB11710911A4EB01110F2927
:1012800002D142A000F0E4FC601C84B23C4800F0B3
:10129000AFFCA042E4D24FF480720021394800F044
:1012A00010FA3BA000F0D4FC41A000F0D1FC4FF4B8
:1012B00080720021474800F032FB002421E04548BD
:1012C000005D3049095D884209D04248015D42A075
:1012D00000F0BEFC47A000F0BBFC002010BD3D4864
:1012E000015D29A000F0B4FCE11704EB11710911B4
:1012F000A4EB01110F2902D124A000F0A9FC601C6D
:1013000084B21F4800F074FCA042D8D848A000F076
:101310009FFC0120E2E700F03BFC202050490860E0
:10132000012008600220091D086000F0D3FB4DA0D9
:1013300000F08EFC00F0FBF84AA000F089FCFFF7FB
:1013400089FF012809D12020454908600120091D95
:1013500008600220091F086008E020204049091D9C
:1013600008600120091F08600220086000BFFEE736
:10137000D0B4C8EBB5C4CAFDBEDD0A0D0000000044
:10138000280000204C000020256420000A0D0000E9
:101390003C3C2D454550524F4D2D494E464F2D3E1C
:1013A0003E200A0DD0B4B3C9B9A60A0D0A00000048
:1013B0003C3C2D454550524F4D2D494E464F2D3EFC
:1013C0003E200A0DB6C1B3F6B5C4CAFDBEDD0A0D96
:1013D0000A0000004C0100203C3C2D454550524F76
:1013E0004D2D4552524F522D3E3E20256420202047
:1013F0000A0000003C3C2D454550524F4D2D4552B2
:10140000524F522D3E3E20B4EDCEF33A49324320A6
:10141000454550524F4DD0B4C8EBD3EBB6C1B3F6EF
:10142000B5C4CAFDBEDDB2BBD2BBD6C20A0D0A002E
:101430003C3C2D454550524F4D2D494E464F2D3E7B
:101440003E20493243284154323443303229B6C118
:10145000D0B4B2E2CAD4B3C9B9A60A0D0A000000DA
:10146000100C01400D0A20D5E2CAC7D2BBB8F6491C
:101470003243CDE2C9E8284154323443303229B6F0
:10148000C1D0B4B2E2CAD4C0FDB3CC200D0A000072
:10149000704700BFFEE700BFFEE700BFFEE700BFEA
:1014A000FEE77047704770477047000008B501219C
:1014B0004805FFF774FC01210820FFF763FC40207A
:1014C000ADF8000003208DF802001C208DF8030009
:1014D0006946F848FEF798FF8020ADF80000032029
:1014E0008DF802001C208DF803006946F148FEF7D4
:1014F0008BFF08BD1FB50020ADF804004BF6FF7050
:10150000ADF806000A20ADF808004FF48060ADF891
:101510000A000001ADF80C00E74800906946E74872
:10152000FFF7D9F80121E548FFF753F91FBD10B5C2
:10153000FFF7BCFFFFF7DEFFA020E1490880A220F3
:101540000880A4200880A620088010BD08B50020CF
:10155000009000BF0121D948FFF75FF91421D74857
:10156000FFF7BAF90090D64801780022D348FFF778
:10157000AAF91421D148FFF7AFF900F002000028C2
:10158000E8D0D049CD48FFF768FA0121CB48FFF7F2
:1015900050F908BD10B504462146CBA000F058FB19
:1015A000002010BD70B504460E4615464FF420408D
:1015B000D149086009E0D0490868411ECE4A11604F
:1015C00018B90420FFF7E6FF70BD4FF40031BB48A7
:1015D000FFF726FA0028EED10121B848FFF71DF9E0
:1015E0004FF48050C449086009E0C3490868411EAF
:1015F000C14A116018B90520FFF7CCFFE4E7BF49E5
:10160000AE48FFF7EBF90028EFD0AD480178002293
:10161000AA48FFF758F94FF48050B749086009E02D
:10162000B5490868411EB44A116018B90620FFF791
:10163000B1FFC9E7B249A148FFF7D0F90028EFD0C0
:1016400031469E48FFF739F94FF48050AA490860A7
:1016500009E0A9490868411EA74A116018B9072086
:10166000FFF798FFB0E7A649891C9448FFF7B6F941
:101670000028EED01AE021789048FFF71EF9641C8C
:101680004FF480509C49086009E09B490868411E5E
:10169000994A116018B90820FFF77CFF94E7984930
:1016A000891C8648FFF79AF90028EED0281EA5F17C
:1016B0000101CDB2DFD101218048FFF7BAF8012046
:1016C00082E72DE9F04707460D4614464FF0000823
:1016D000C146C24600262846E91705EB5171C910DC
:1016E000A5EBC10101F0FF0ACAF10800C6B220460D
:1016F000E11704EB5171C1F3C708E11704EB517115
:10170000C910A4EBC10101F0FF09BAF1000F28D103
:10171000B8F1000F07D14A4629463846FFF742FF85
:10172000FFF714FF60E00AE0082229463846FFF779
:1017300039FFFFF70BFF05F10800C5B20837B8F114
:101740000000A8F1010101F0FF08EDD1B9F1000F8F
:101750004AD04A4629463846FFF724FFFFF7F6FEEF
:1017600042E0B8F1000F07D14A4629463846FFF754
:1017700019FFFFF7EBFE37E0A01B84B22046E1170C
:1017800004EB5171C1F3C708E11704EB5171C910A3
:10179000A4EBC10101F0FF094EB13246294638469B
:1017A000FFF700FFFFF7D2FEA819C5B237440AE0E1
:1017B000082229463846FFF7F5FEFFF7C7FE05F178
:1017C0000800C5B20837B8F10000A8F1010101F026
:1017D000FF08EDD1B9F1000F06D04A462946384638
:1017E000FFF7E0FEFFF7B2FEBDE8F08770B50446F4
:1017F0000D4601213148FFF710F84FF480503E4963
:10180000086009E03C490868411E3B4A116018B96C
:101810000020FFF7BFFE70BD38492848FFF7DEF80B
:101820000028EFD04FF480503349086024480178F5
:1018300000222248FFF747F809E02F490868411EB7
:101840002D4A116018B90120FFF7A4FEE3E72C49E7
:101850001A48FFF7C3F80028EFD029461748FFF7CA
:101860002CF84FF480502449086009E022490868A8
:10187000411E214A116018B90220FFF78BFECAE70A
:101880001F49891C0D48FFF7A9F80028EED02178E0
:101890000A48FFF712F84FF480501749086032E009
:1018A00015490868411E144A116058BB0320FFF710
:1018B00071FEB0E7000C0140801A060000540040A1
:1018C00040000020000400103C3C2D454550524F84
:1018D0004D2D4552524F522D3E3E2049324320B5A8
:1018E000C8B4FDB3ACCAB1216572726F72436F6444
:1018F00065203D2025640A0044000020010003000B
:1019000082000700FFE76E496E48FFF767F800287E
:10191000C6D001216B48FEF78CFF01207BE770B534
:1019200005460E4614464FF420406749086009E01A
:1019300065490868411E644A116018B90920FFF71B
:1019400029FE70BD4FF400315E48FFF769F80028AA
:10195000EED101215B48FEF760FF4FF480505A49F9
:10196000086009E058490868411E574A116018B9D3
:101970000A20FFF70FFEE4E754495248FFF72EF81C
:101980000028EFD05248017800224E48FEF79BFF16
:101990004FF480504C49086009E04B490868411EEB
:1019A000494A116018B90B20FFF7F4FDC9E7444913
:1019B000891E4448FFF712F80028EED00121414863
:1019C000FEF707FF31463F48FEF777FF4FF48050A0
:1019D0003D49086009E03C490868411E3A4A1160E7
:1019E00018B90C20FFF7D6FDABE735493548FEF7AF
:1019F000F5FF0028EFD001213248FEF70EFF4FF42B
:101A000080503149086009E02F490868411E2E4A7C
:101A1000116018B90D20FFF7BDFD92E72B49294849
:101A2000FEF7DCFF0028EFD0294801780122254885
:101A3000FEF749FF4FF480502349086009E022492E
:101A40000868411E204A116018B90E20FFF7A2FD58
:101A500077E71E49491C1B48FEF7C0FF0028EED05F
:101A600026E0012C07D100211648FEF7EEFE0121E9
:101A70001448FEF7DEFE4FF420401349086009E0E9
:101A800011490868411E104A116018B90320FFF778
:101A900081FD56E70D493F310A48FEF79FFF0028B8
:101AA000EED00848FEF70BFF28706D1C601E84B254
:101AB000002CD6D101210348FEF7C7FE012040E7E4
:101AC000840007000054004044000020010003008F
:101AD0004000002000B585B001210420FFF752F935
:101AE00001218803FFF74EF94FF40070ADF81000A4
:101AF00018208DF8130003208DF8120004A9224845
:101B0000FEF782FC4FF48060ADF8100004208DF8E1
:101B1000130004A91C48FEF777FC4FF4E130009055
:101B20000020ADF80400ADF80600ADF80800ADF8EF
:101B30000C000C20ADF80A0069461448FFF7C9F9FB
:101B400001211248FFF751FA05B000BD70B50446F7
:101B50000D46E1B20D48FFF7B5FA00BF80210B48F2
:101B6000FFF71EFB0028F9D0204670BD10B50446D3
:101B700000BF20210548FFF713FB0028F9D00348D8
:101B8000FFF7A4FA10BD0000000801400038014032
:101B900008B501210820FFF7F5F82020ADF8000076
:101BA00010208DF8030003208DF8020069460F48CD
:101BB000FEF72AFC0120ADF8000069460B48FEF74D
:101BC00023FC0220ADF8000069460848FEF71CFC23
:101BD00020210648FEF7C5FC01210448FEF7C1FCA0
:101BE00002210248FEF7BDFC08BD0000000C0140C8
:101BF000421C10F8011B0029FBD1801A704730B538
:101C00000B46014600202022012409E021FA02F5BA
:101C10009D4205D303FA02F5491B04FA02F5284454
:101C2000151EA2F10102F1DC30BD0000064C074D8B
:101C300006E0E06840F0010394E80700984710349C
:101C4000AC42F6D3FEF778FAE41D0008041E000843
:101C50000FB4054B10B503A9044A029800F018F818
:101C600010BC5DF814FB00004D1B0008480000206C
:101C700002E008C8121F08C1002AFAD17047704755
:101C8000002001E001C1121F002AFBD170470000B3
:101C90002DE9FF4F89B09B460446002506E0252824
:101CA0000BD05A460B999047641C6D1C2078002875
:101CB000F5D10DB02846BDE8F08F0027B8460122C7
:101CC000474900E0074314F8013F203B02FA03F0C4
:101CD0000842F7D120782E2819D114F8010F47F0C7
:101CE00004072A280ED06FF02F022078A0F13001CF
:101CF00009290CD808EB880102EB410100EB01082F
:101D0000641CF2E70A98641C50F8048B0A9020784F
:101D10000028CED0642808D0692806D075281ED0A7
:101D20005A460B9990476D1C58E00A994FF00A09E2
:101D300001C90A91002802DA40422D2102E039054A
:101D400004D52B218DF82010012103E0F90704D0E0
:101D50002021F7E78A4608AE0DE00021FAE70A994C
:101D60004FF00A0901C90A91F7E74946FFF747FF13
:101D7000303106F8011D0028F7D1ADEB060000F167
:101D80002009780701D44FF00108C84502DDA8EB0F
:101D9000090000E000208046002706E008A85A4617
:101DA000C05D0B9990476D1C7F1C5745F6DB04E026
:101DB00030205A460B9990476D1CB8F10001A8F1EC
:101DC0000108F5DC05E016F8010B5A460B9990471F
:101DD0006D1CB9F10001A9F10109F4DC641C65E78F
:101DE00009280100041E0008000000204C0000002B
:101DF000701C0008501E00084C0000200406000063
:101E0000801C000800A24A0400000000000000003E
:101E10000102030406070809000000000102030490
:101E2000010203040607080902040608776F796FA8
:101E300075796967656D656E677869616E6731325E
:101E4000330000000000000000A0000000000000BF
:0400000508000131BD
:00000001FF
