:020000040800F2
:10000000580400204501000821080008A107000845
:100010001D080008B9010008551200080000000082
:10002000000000000000000000000000390A000885
:10003000E901000800000000A9080008250B0008DD
:100040005F0100085F0100085F0100085F01000810
:100050005F0100085F0100085F0100085F01000800
:10006000ED0100085F0100085F0100085F01000862
:100070005F0100085F0100085F0100085F010008E0
:100080005F0100085F0100085F0100085F010008D0
:100090005F0100085F0100085F0100085F010008C0
:1000A0005F0100085F0100085F0100085F010008B0
:1000B000810C00085F0100085F0100085F01000873
:1000C0005F0100085F0100085F0100085F01000890
:1000D0005F0100085F0100085F0100085F01000880
:1000E0005F0100085F0100085F0100085F01000870
:1000F0005F0100085F0100085F0100085F01000860
:100100005F0100085F0100085F0100085F0100084F
:100110005F0100085F0100085F0100085F0100083F
:100120005F0100085F0100085F0100085F0100082F
:10013000DFF80CD000F02EF800480047B119000895
:10014000580400200648804706480047FEE7FEE7BF
:10015000FEE7FEE7FEE7FEE7FEE7FEE7FEE7FEE777
:10016000A90B00083101000830B50B4601460020FC
:100170002022012409E021FA02F59D4205D303FA69
:1001800002F5491B04FA02F52844151EA2F10102EA
:10019000F1DC30BD064C074D06E0E06840F001039D
:1001A00094E8070098471034AC42F6D3FFF7C4FF39
:1001B000D81C0008F81C000800BFFEE708B50121A4
:1001C000080200F083FB10208DF8030003208DF857
:1001D00002004FF4A870ADF800006946014800F035
:1001E00047FA08BD002001407047000010B5042008
:1001F00000F028F820B104480068401C024908605B
:10020000042000F019F810BD2C00002008B54FF4B0
:10021000A06000F03FFB08208DF8000001208DF861
:10022000010000208DF8020001208DF803006846CF
:1002300000F0F8FA08BD00000149086070470000AE
:1002400014040140014600200022074B1B6803EA0A
:100250000102054B14331B680B4013B10AB1012096
:1002600000E0002070470000000401400021234905
:100270008279002A3AD00A46126803689A430B46EC
:100280001A600A1D126803689A430B1D1A600279EE
:1002900011440A6803681A430A60184A083212684F
:1002A00003689A43154B08331A601A1D12680368D5
:1002B0009A43124B0C331A604279102A0ED11A1F3E
:1002C000126803681A430D4B08331A601A1D12682E
:1002D00003681A43094B0C331A600DE00749427951
:1002E00011440A6803681A430A6005E00279114460
:1002F0000A6803689A430A607047000000040140DE
:100300000EB5012140F2011000F0E0FAFFF77EFF88
:100310000420ADF8080048208DF80B0002A90B4816
:1003200000F0A6F90221062000F082F904200090D6
:1003300000208DF804000C208DF8050001208DF8B8
:1003400006006846FFF792FF0EBD00000020014046
:100350001CB50221062000F06BF90420009000205B
:100360008DF804000C208DF8050000208DF80600A3
:100370006846FFF77BFF1CBD1CB50221062000F07C
:1003800057F90420009000208DF804000C208DF80F
:10039000050001208DF806006846FFF767FF1CBDC9
:1003A00008B50121082000F091FA4020ADF80000C6
:1003B00018208DF8030003208DF8020069461C48C0
:1003C00000F056F90121082000F080FA4FF4807007
:1003D000ADF8000018208DF8030003208DF802000E
:1003E0006946134800F044F90121082000F06EFA34
:1003F0004FF40070ADF8000018208DF803000320C2
:100400008DF8020069460A4800F032F90121042003
:1004100000F05CFA0120ADF8000018208DF8030010
:1004200003208DF802006946024800F021F908BD5A
:10043000000C01400008014010B5FFF7B1FF00F0CB
:1004400001F810BDF0B58BB00121042000F02EFAA8
:100450000121082000F02AFA44F61F60ADF82400BC
:100460004720ADF820000020ADF82600ADF82200AE
:100470008DF8280008A9274800F0C4FD08A92648DF
:1004800000F0C0FD0027002400256020ADF810001A
:100490000120ADF812000020ADF81800ADF816707C
:1004A00004A91C4800F04CFC08211A4800F094FCF8
:1004B000ADF8164004A9174800F0F8FC08211548CB
:1004C00000F044FDADF8165004A9124800F048FDB4
:1004D0000821104800F082FD00266020ADF80000E1
:1004E0000120ADF802000020ADF80800ADF806606C
:1004F0006946094800F024FC0821074800F06CFC1C
:100500000121044800F0F6FB0121034800F0F2FB52
:100510000BB0F0BD00080040000C004008B5012100
:10052000042000F0D3F98020ADF8000018208DF8E9
:10053000030003208DF802006946134800F098F884
:100540000121082000F0C2F90120ADF800001820B8
:100550008DF8030003208DF8020069460B4800F077
:1005600087F80121082000F0B1F90220ADF8000061
:1005700018208DF8030003208DF802006946034817
:1005800000F076F808BD000000080140000C0140B2
:1005900010B5FFF7C3FF00F001F810BD70B588B0CB
:1005A0000121022000F082F940F25720ADF8180036
:1005B0004720ADF814000020ADF81A00ADF8160081
:1005C0008DF81C0005A9194800F01CFD32260024F6
:1005D00000256020ADF804000120ADF806000020E1
:1005E000ADF80C00ADF80A6001A9104800F0FEFB60
:1005F00008210E4800F04CFCADF80A4001A90B4858
:1006000000F054FC0821094800F0A0FCADF80A50A5
:1006100001A9064800F0A4FC0821044800F0DEFC13
:100620000121024800F066FB08B070BD00040040E4
:1006300030B500228B071C0F0F2303FA04F20B4B7B
:100640008C1053F824309343084C8D1044F8253017
:1006500023468C1053F824308C07240F00FA04F43E
:100660002343024C8D1044F8253030BD0800014072
:100670002DE9F04102460025002600200023002439
:10068000002791F803C00CF00F0591F803C00CF09F
:10069000100CBCF1000F03D091F802C04CEA050524
:1006A00091F800C0BCF1000F31D0146800202BE09D
:1006B0004FF0010C0CFA00F3B1F800C00CEA03068D
:1006C0009E4220D183004FF00F0C0CFA03F7BC437D
:1006D00005FA03FC4CEA040491F803C0BCF1280FAE
:1006E00006D14FF0010C0CFA00FCC2F814C00AE06D
:1006F00091F803C0BCF1480F05D14FF0010C0CFA82
:1007000000FCC2F810C0401C0828D1D31460B1F816
:1007100000C0BCF1FF0F34DD546800202EE000F172
:10072000080C4FF0010808FA0CF3B1F800C00CEA0D
:1007300003069E4221D183004FF00F0C0CFA03F701
:10074000BC4305FA03FC4CEA040491F803C0BCF175
:10075000280F05D100F1080C08FA0CF8C2F8148033
:1007600091F803C0BCF1480F07D100F1080C4FF01D
:10077000010808FA0CF8C2F81080401C0828CED3F3
:100780005460BDE8F0810246002093680B400BB135
:10079000012000E00020704741617047016170470F
:1007A00000BFFEE710B50446012C07D101F052FA54
:1007B0000C4800F08BFE01F031FA12E0022C07D158
:1007C00001F048FA084800F081FE01F027FA08E03D
:1007D000032C06D101F03EFA044800F077FE01F048
:1007E0001DFA10BD981C050030390A00C8550F00CD
:1007F00070B504460D462146064800F000FC25B1C0
:1008000004210548FFF7CAFF03E004210248FFF76F
:10081000C3FF70BD000400400008014000BFFEE7B8
:100820007047000070B5002100230F22C47804B384
:10083000154C246804F4E064C4F5E064210AC1F1B5
:100840000403CA40447804FA03F184781440214335
:1008500009010E4C0678A155047804F01F05012407
:10086000AC4005786D11AD0005F1E025C5F80041FB
:1008700009E0047804F01F050124AC40044D06781B
:10088000761145F8264070BD0CED00E000E400E074
:1008900080E100E002490143024A11607047000014
:1008A0000000FA050CED00E07047000029B1064A8F
:1008B000D2690243044BDA6104E0034AD2698243FD
:1008C000014BDA61704700000010024029B1064A6E
:1008D00092690243044B9A6104E0034A926982439D
:1008E000014B9A61704700000010024030B50021B2
:1008F0000022002400232D4D6D6805F00C0121B16C
:10090000042905D0082923D105E0294D056022E0FE
:10091000274D05601FE0254D6D6805F47012234DCD
:100920006D6805F48034022505EB92421CB9214D17
:10093000554305600BE01D4D6D6805F400351DB194
:100940001C4D5543056002E0194D5543056002E01A
:10095000174D056000BF00BF144D6D6805F0F00134
:100960000909154D6B5C0568DD4045600F4D6D68EC
:1009700005F4E061090A104D6B5C4568DD40856057
:100980000A4D6D6805F46051C90A0B4D6B5C4568F2
:10099000DD40C560054D6D6805F44041890B074D8C
:1009A0006B5CC568B5FBF3F5056130BD0010024016
:1009B00000127A0000093D001400002024000020ED
:1009C00010B50446012C07D101F04EF90C4800F097
:1009D0007DFD01F023F912E0022C07D101F044F96A
:1009E000084800F073FD01F019F908E0032C06D166
:1009F00001F03AF9044800F069FD01F00FF910BD6B
:100A0000981C050030390A00C8550F0070B504461F
:100A10000D462146064800F0F0FA25B110210548A0
:100A2000FFF7BCFE03E010210248FFF7B5FE70BDE2
:100A30000004004000080140704710B500F002F8C3
:100A400010BD00000CB500200190009033480068F4
:100A500040F480303149086000BF3048006800F43D
:100A6000003000900198401C0190009818B901983E
:100A7000B0F5A06FF1D12948006800F4003010B142
:100A80000120009001E0002000900098012843D14F
:100A90002348006840F010002149086008460068BB
:100AA00020F0030008600846006840F0020008607B
:100AB0001A48406819494860084640684860084636
:100AC000406840F4806048600846406820F47C102C
:100AD00048600846406840F4E810486008460068EE
:100AE00040F08070086000BF0C48006800F00070A3
:100AF0000028F9D00948406820F003000749486001
:100B00000846406840F00200486000BF0348406863
:100B100000F00C000828F9D10CBD000000100240C4
:100B20000020024010B500F0BFFA10BD30B51A48E1
:100B300000681A4AB0FBF2F1B1F1807F01D30120C5
:100B40001DE021F07F40401E4FF0E0225061501721
:100B50000F22002807DA13071D0E114B00F00F04B7
:100B6000241F1D5503E013071C0E0E4B1C5400BF21
:100B700000204FF0E022906107201061002008B1B2
:100B800000BFFEE74FF0E020006920F001004FF0C9
:100B9000E021086130BD00000000002040420F004D
:100BA00018ED00E000E400E010B51348006840F0E4
:100BB00001001149086008464068104908400E4984
:100BC0004860084600680E4908400B49086008461E
:100BD000006820F4802008600846406820F4FE0089
:100BE00048604FF41F008860FFF727FF4FF0006058
:100BF0000449086010BD0000001002400000FFF82A
:100C0000FFFFF6FE08ED00E010B500200549086082
:100C100005490870FFF7B0FB01210846FFF746FEC3
:100C200010BD000044000020500000200EB501213E
:100C30000846FFF73BFE00F043F84FF47A70ADF83A
:100C400004004720ADF800000020ADF80600ADF824
:100C5000020069464FF0804000F0D4F90121880776
:100C600000F042F801221146900700F060F80121DF
:100C7000880700F03FF800210120FFF717FE0EBDA6
:100C800010B50121880700F041F818B10120094989
:100C9000087002E00020074908700748006807490B
:100CA00008600020044908600121880700F01FF84F
:100CB00010BD0000500000202C0000204400002047
:100CC00008B54FF4A060FFF7E5FD1C208DF800008B
:100CD00000208DF801008DF8020001208DF803003E
:100CE0006846FFF79FFD08BDCA4302827047CA43AA
:100CF0000282704721B1028842F00102028004E0C2
:100D000002884FF6FE731A400280704730B50246E3
:100D1000002000230024158A05EA0103958905EACD
:100D2000010413B10CB1012000E0002030BD1AB164
:100D300083890B43838102E083898B4383817047DE
:100D400070B5002400220023058C4FF6FE76354056
:100D50000584028C8388048B4FF68F752C40B51E5A
:100D60002C400D882C43751E2A400D892A434D883E
:100D70002A43144DA8420BD0134DA84208D0134D5E
:100D8000A84205D0124DA84202D0124DA84213D15C
:100D90004FF6F7752A404D892A434FF6FB752A40D6
:100DA0008D882A434FF6FF652B404FF6FF552B40A9
:100DB0008D892B43CD892B4383800483CD88858601
:100DC000028470BD002C014000340140004001400D
:100DD00000440140004801400A460021018B4FF6C3
:100DE000F7731940114301837047000070B5002468
:100DF00000220023058C4FF6EF7635400584028CE7
:100E00008388048B48F6FF752C404FF6FF452C4035
:100E10000D884FF6FF7606EA05252C434FF6DF7561
:100E20002A400D8906EA05152A434D8806EA05156C
:100E30002A43154DA84202D0144DA8421DD14FF6A9
:100E40007F752A404D894FF6FF7606EA05152A433D
:100E50004FF6BF752A408D8806EA05152A434FF6DE
:100E6000FF352B404FF2FF752B408D8906EA850533
:100E70002B43CD8906EA85052B4383800483CD88E7
:100E80000587028470BD0000002C01400034014041
:100E90000A460021018B4FF2FF7319404FF6FF7392
:100EA00003EA0223194301837047000070B5002450
:100EB00000220023058C4FF6FF6635400584028C26
:100EC0008388848B4FF68F752C404FF6FC752C4031
:100ED0000D882C434FF6FF552A400D894FF6FF76BB
:100EE00006EA05252A434D8806EA05252A43154DBD
:100EF000A84202D0144DA8421DD14FF2FF752A40DE
:100F00004D894FF6FF7606EA05252A434FF6FF3551
:100F10002A408D8806EA05252A434EF6FF752B40A8
:100F20004DF6FF752B408D8906EA05152B43CD89BB
:100F300006EA05152B4383808483CD888587028448
:100F400070BD0000002C0140003401400A46002121
:100F5000818B4FF6F773194011438183704700006E
:100F600070B5002200230024058C4EF6FF76354034
:100F70000584038C8488828B48F6FF752A404FF6DF
:100F8000FF452A400D884FF6FF7606EA05252A43DD
:100F90004DF6FF752B400D8906EA05352B434D882C
:100FA00006EA05352B430B4DA84202D00A4DA84254
:100FB00008D14BF6FF752C408D894FF6FF7606EA77
:100FC00085152C4384808283CD88A0F8405003840B
:100FD00070BD0000002C0140003401400A46002191
:100FE000818B4FF2FF7319404FF6FF7303EA022320
:100FF0001943818370478186704781877047A0F8C5
:1010000040107047002202881D4B98420ED01D4BA5
:1010100098420BD0B0F1804F08D01B4B984205D0BE
:101020001A4B984202D01A4B984204D14FF68F7354
:101030001A404B881A43174B984207D0164B9842D8
:1010400004D04FF6FF431A40CB881A4302808B88A6
:1010500083850B8803850A4B98420BD0094B984235
:1010600008D00E4B984205D00D4B984202D00D4B44
:10107000984201D10B7A03860123838270470000D6
:10108000002C0140003401400004004000080040F2
:10109000000C0040001000400014004000400140DF
:1010A00000440140004801400448006820B1034862
:1010B0000068401E014908607047000038000020A9
:1010C00021B1828942F40052828104E082894DF686
:1010D000FF731A408281704700B585B0012104205A
:1010E000FFF7F4FB01218803FFF7F0FB4FF40070DA
:1010F000ADF8100018208DF8130003208DF81200B1
:1011000004A91348FFF7B4FA4FF48060ADF810005B
:1011100004208DF8130004A90D48FFF7A9FA4FF435
:10112000E13000900020ADF80400ADF80600ADF805
:101130000800ADF80C000C20ADF80A00694605481F
:1011400000F018F801210348FFF7BAFF05B000BD11
:10115000000801400038014002460020B1F5007F40
:1011600000D100BF13880B400BB1012000E000202C
:10117000704700002DE9F04786B005460E46002472
:10118000A24600BFA1460027B08900B100BF2F468C
:101190002C8A4CF6FF700440F08804432C82AC8902
:1011A0004EF6F3100440B088318908437189084332
:1011B0000443AC81AC8A4FF6FF400440B08904433D
:1011C000AC8201A8FFF792FB1F48874202D1DDF8ED
:1011D00010A001E0DDF80CA0A88900F4004040B1A7
:1011E0000AEBCA0000EB0A1031684900B0FBF1F8C5
:1011F00007E00AEBCA0000EB0A1031688900B0FB77
:10120000F1F86420B8FBF0F004012009642101FB2F
:101210001089A88900F4004040B1322000EBC900D9
:10122000B0FBF1F000F00700044308E0322000EBCF
:1012300009106421B0FBF1F000F00F0004432C8191
:1012400006B0BDE8F087000000380140C1F3080295
:101250008280704700BFFEE708B501210420FFF738
:1012600035FB0420ADF8000010208DF803000320AA
:101270008DF8020069460748FFF7FAF901210420BA
:10128000FFF724FB1020ADF8000069460148FFF786
:10129000EFF908BD000801400FB4054B10B503A9D4
:1012A000044A029800F018F810BC5DF814FB000026
:1012B000191700085400002002E008C8121F08C1D6
:1012C000002AFAD170477047002001E001C1121FC7
:1012D000002AFBD1704700002DE9FF4F89B09B46E3
:1012E0000446002506E025280BD05A460B99904766
:1012F000641C6D1C20780028F5D10DB02846BDE88F
:10130000F08F0027B8460122474900E0074314F850
:10131000013F203B02FA03F00842F7D120782E2843
:1013200019D114F8010F47F004072A280ED06FF0E6
:101330002F022078A0F1300109290CD808EB880190
:1013400002EB410100EB0108641CF2E70A98641CFF
:1013500050F8048B0A9020780028CED0642808D05A
:10136000692806D075281ED05A460B9990476D1CE7
:1013700058E00A994FF00A0901C90A91002802DAD7
:1013800040422D2102E0390504D52B218DF8201093
:10139000012103E0F90704D02021F7E78A4608AECF
:1013A0000DE00021FAE70A994FF00A0901C90A91F4
:1013B000F7E74946FEF7D8FE303106F8011D002850
:1013C000F7D1ADEB060000F12009780701D44FF00A
:1013D0000108C84502DDA8EB090000E000208046B6
:1013E000002706E008A85A46C05D0B9990476D1C7F
:1013F0007F1C5745F6DB04E030205A460B99904796
:101400006D1CB8F10001A8F10108F5DC05E016F843
:10141000010B5A460B9990476D1CB9F10001A9F1D7
:101420000109F4DC641C65E70928010070B5044675
:101430000D4615B1284600F08BF900F0F9FB0E4877
:1014400000F044F800F0FAFA0B4800F03FF80320EF
:10145000FFF7B6FA084800F039F8012000F020FB49
:1014600000F00CFC044800F031F81CB1A1B20348B4
:10147000FFF7C1FD70BD000040420F00000C0040AE
:1014800010B5FFF7D3FBFEF799FEFEF739FF0020FA
:101490000149086010BD0000A001244210B5FFF70B
:1014A000C5FBFFF70DFCFEF789FEFEF7AFFEFEF76A
:1014B00027FFFFF7E5FFFFF7A7FBFEF75DFFFEF74E
:1014C00047FFFFF709FEFFF731FB10BD01B50849E3
:1014D000009808604FF0E020006940F001004FF0F4
:1014E000E021086100BF024800680028FBD108BD68
:1014F0003800002070B504460D4615B1284600F0AE
:1015000027F900F095FB0E48FFF7E0FF00F096FA90
:101510000B48FFF7DBFF0320FFF744F90848FFF70C
:10152000D5FF012000F0BCFA00F0A8FB0448FFF74B
:10153000CDFF1CB1A1B20348FFF75DFD70BD0000F7
:1015400040420F00000C004010B540F698013C48A6
:10155000FFF751FD3B48FFF7B9FF00F097FA3A4813
:10156000FFF7B4FF00F05AFB40F214513748FFF781
:1015700044FD40F6C3113548FFF741FD3148FFF700
:10158000A5FF40F6FC013148FFF739FD2D48FFF774
:101590009DFF40F26C712D48FFF72FFD00F0CEF853
:1015A0002848FFF793FF00F039FB40F6CA012748AF
:1015B000FFF725FD4CF25030FFF788FF40F6980109
:1015C0002248FFF71CFD4CF25030FFF77FFF40F63A
:1015D00066011E48FFF713FD4CF25030FFF776FF0F
:1015E00040F634011948FFF70AFD4CF25030FFF77E
:1015F0006DFF40F602011548FFF701FD4CF2503037
:10160000FFF764FF4FF4FA611048FFF7F8FC0D484C
:10161000FFF75CFF40F214510C48FFF7EEFC00F0BE
:1016200035FA0B48FFF752FF00F0F8FA4FF49661D5
:101630000348FFF7E0FC00F029FA00F039FB10BD89
:10164000000C004020A10700A08601000008004017
:10165000E093040010B540F698012948FFF7CBFC51
:101660002848FFF733FF40F214512748FFF7C5FC25
:1016700040F6C3112448FFF7C2FC2248FFF726FFBB
:1016800000F004FA2148FFF721FF00F0C7FA40F20A
:101690006C711D48FFF7B3FC1A48FFF717FF40F2C3
:1016A0006C711948FFF7A9FC00F048F81548FFF7DE
:1016B0000DFF00F0B3FA4FF4FA611348FFF79FFCF7
:1016C0001048FFF703FF40F214510F48FFF795FC55
:1016D00000F0DCF90E48FFF7F9FE00F09FFA4FF436
:1016E00096610748FFF787FC0A48FFF7EFFE00F016
:1016F00025F80448FFF7EAFE00F0DAFA10BD000012
:10170000000C004020A1070000080040D0DD0600CA
:10171000C0450400400D030070B504460D46E1B21B
:101720000548FFF793FD00BF80210348FFF714FD34
:101730000028F9D0204670BD0038014010B50021C6
:10174000FA20FFF755F80121FA20FFF75FF910BDE5
:1017500010B50446FFF7F2FF0148FFF7B7FE10BDD2
:101760003057050010B500F01BF800F08FF800F0BE
:101770009FF800F0AFF800F0BFF800F0CFF800F0ED
:10178000DFF800F0EFF800F0FFF800F01BF800F0D1
:101790002DF800F03FF800F051F800F063F810BDAC
:1017A00008B501218020FFF791F81020ADF8000066
:1017B00028208DF8030069460148FEF759FF08BD4F
:1017C000001C014008B501218020FFF77FF84FF48D
:1017D0000070ADF8000028208DF80300694602482B
:1017E000FEF746FF08BD0000001C014008B50121BE
:1017F0008020FFF76BF84FF48060ADF800002820E0
:101800008DF8030069460248FEF732FF08BD00006C
:10181000001C014008B501218020FFF757F84FF464
:101820000060ADF8000028208DF8030069460248EA
:10183000FEF71EFF08BD0000001C014008B5012195
:101840008020FFF743F84FF48050ADF800002820C7
:101850008DF8030069460248FEF70AFF08BD000044
:10186000001C014008B501218020FFF72FF84FF43C
:101870000050ADF8000028208DF8030069460248AA
:10188000FEF7F6FE08BD0000001C014008B501216E
:101890008020FFF71BF80820ADF8000028208DF805
:1018A000030069460148FEF7E3FE08BD001C014045
:1018B00008B501218020FFF709F80420ADF80000E9
:1018C00028208DF8030069460148FEF7D1FE08BDC7
:1018D000001C014008B501218020FEF7F7FF02201F
:1018E000ADF8000028208DF8030069460148FEF796
:1018F000BFFE08BD001C014008B501218020FEF795
:10190000E5FF0120ADF8000028208DF803006946AE
:101910000148FEF7ADFE08BD001C014008B50121DD
:101920008020FEF7D3FF2020ADF8000028208DF89E
:10193000030069460148FEF79BFE08BD001C0140FC
:1019400008B501218020FEF7C1FF4020ADF800005E
:1019500028208DF8030069460148FEF789FE08BD7E
:10196000001C014008B501210820FEF7AFFF8020D0
:10197000ADF8000028208DF8030069460148FEF705
:1019800077FE08BD000C014008B501218020FEF75C
:101990009DFF4FF48070ADF8000028208DF8030003
:1019A00069460248FEF764FE08BD0000001C0140C5
:1019B000FFF752FCFEF7ECFDFEF73EFDFFF78CFB58
:1019C00017A0FFF769FCFFF7CDFEFFF767FD0121C8
:1019D0000020FFF78FFDFFF73DFEFFF7AFFE134836
:1019E000FFF774FD00F01AF940F214511048FFF7A8
:1019F00004FB40F6C3110E48FFF701FB0D48FFF74B
:101A000065FD40F698010C48FFF7F5FA012100202A
:101A1000FFF70CFDFFF798FD00F000F900BFFEE7AF
:101A2000D4FCD7D3C4E3BAC3A3A10000400D030084
:101A30000008004020A10700000C004070B500F035
:101A400025F81048FFF742FD19E000F05FF820216B
:101A50000D4800F0D7F8012810D100240025C82433
:101A600007E0962502E000F051F86D1E002DFAD136
:101A7000641E002CF5D100F0D1F801E000BFE4E7CE
:101A800000BF70BD400D0300001C014010B50121D6
:101A9000FA20FEF7ADFE0021FA20FEF7B7FF10BDD9
:101AA00070B505460024FFF7F1FF1448FFF70EFD5F
:101AB00021E000F02BF82021114800F0A3F80128C4
:101AC00019D1601CC4B221460EA0FFF7E5FBAC4261
:101AD00003DB002400F0A2F80EE00B48FFF7F6FC51
:101AE00007E0FFF7D3FF2021054800F08BF800B98D
:101AF00000E0F6E700BFDCE700BF70BD90D0030058
:101B0000001C014025640000400D030010B50821B1
:101B10003B4800F077F8012805D00421384800F050
:101B200071F8012811D10221354800F06BF860B935
:101B30000121334800F066F838B90121FA20FEF798
:101B400057FE00210846FEF761FF08212C4800F0EF
:101B500059F8C0B904212A4800F054F898B9022174
:101B6000274800F04FF8012805D00121244800F053
:101B700049F8012807D101210020FEF739FE002194
:101B8000FA20FEF743FF08211D4800F03BF8B0B9EA
:101B900004211B4800F036F888B90221184800F0EB
:101BA00031F860B90121164800F02CF838B901214C
:101BB000FA20FEF71DFE0021FA20FEF727FF08217C
:101BC0000F4800F01FF8012805D004210C4800F050
:101BD00019F8012813D10221094800F013F801284F
:101BE00005D00121064800F00DF8012807D1012198
:101BF000FA20FEF7FDFD0021FA20FEF707FF10BDD9
:101C0000001C014070B505460C46A1B22846FEF7FF
:101C1000BAFD08B9002070BD0120FCE710B5012114
:101C20000020FEF7E5FD01210020FEF7EFFE10BDCC
:101C300010B500F00FF80548FFF748FCFFF77EFDF0
:101C40000348FFF743FCFFF7E9FF10BD709914004C
:101C5000B01E040010B50121FA20FEF7C9FD0121D4
:101C6000FA20FEF7D3FE10BD10B50021FA20FEF7D2
:101C7000BFFD0021FA20FEF7C9FE10BD10B5FFF729
:101C800005FF0948FFF722FC0AE0FFF73FFF40216C
:101C90000648FFF7B7FF012802D1FFF7BFFF00E0BA
:101CA000F3E700BF10BD0000400D0300001C014021
:101CB00010B5FFF7EBFE0AE0FFF728FF40210548CB
:101CC000FFF7A0FF012802D1FFF7A8FF00E0F3E72C
:101CD00000BF10BD001C0140F81C000800000020DF
:101CE00058000000B8120008501D000858000020DD
:101CF00000040000C812000800A24A04000000000E
:101D000000000000010203040607080900000000AB
:101D1000010203040102030406070809020406087D
:101D200000000000000000000000000000000000B3
:101D300000000000000000000000000000000000A3
:101D40000000000000000000000000000000000093
:0400000508000131BD
:00000001FF
