:020000040800F2
:10000000180400204501000829050008E70400083D
:10001000250500088D010008C10B00080000000044
:10002000000000000000000000000000F9060008C9
:100030009101000800000000E1050008E507000844
:100040005F0100085F0100085F0100085F01000810
:100050005F0100085F0100085F0100085F01000800
:100060005F0100085F0100085F0100085F010008F0
:100070005F0100085F0100085F0100085F010008E0
:100080005F0100085F0100085F0100085F010008D0
:100090005F0100085F0100085F0100085F010008C0
:1000A0005F0100085F0100085F0100085F010008B0
:1000B0005F0100085F0100085F0100085F010008A0
:1000C0005F0100085F0100085F0100085F01000890
:1000D0005F0100085F0100085F0100085F01000880
:1000E0005F0100085F0100085F0100085F01000870
:1000F0005F0100085F0100085F0100085F01000860
:100100005F0100085F0100085F0100085F0100084F
:100110005F0100085F0100085F0100085F0100083F
:100120005F0100085F0100085F0100085F0100082F
:10013000DFF80CD000F018F800480047E50B000885
:10014000180400200648804706480047FEE7FEE7FF
:10015000FEE7FEE7FEE7FEE7FEE7FEE7FEE7FEE777
:10016000E907000831010008064C074D06E0E06889
:1001700040F0010394E8070098471034AC42F6D3EE
:10018000FFF7DAFF0C0C00082C0C000800BFFEE79C
:1001900070470000002123498279002A3AD00A469C
:1001A000126803689A430B461A600A1D12680368B6
:1001B0009A430B1D1A60027911440A6803681A43B6
:1001C0000A60184A0832126803689A43154B0833CC
:1001D0001A601A1D126803689A43124B0C331A6096
:1001E0004279102A0ED11A1F126803681A430D4B68
:1001F00008331A601A1D126803681A43094B0C333E
:100200001A600DE00749427911440A6803681A43ED
:100210000A6005E0027911440A6803689A430A609B
:1002200070470000000401400EB50121052000F0D8
:10023000E9F900F07AF90120ADF8080004208DF802
:100240000B0002A9194800F0BFF80021084600F091
:100250009BF80120009000208DF8040008208DF804
:10026000050001208DF806006846FFF793FF4FF464
:100270000050ADF8080004208DF80B0002A90C48CE
:1002800000F0A2F80D21022000F07EF84FF400509B
:10029000009000208DF804000C208DF8050001204E
:1002A0008DF806006846FFF775FF0EBD0008014097
:1002B0000010014008B50121082000F0A3F9012039
:1002C000ADF8000018208DF8030003208DF802001F
:1002D00069460A4800F078F80121082000F092F9F8
:1002E0000220ADF8000018208DF8030003208DF8DF
:1002F00002006946014800F067F808BD000C0140A3
:1003000010B5FFF7D7FF00F001F810BD30B587B08A
:100310000121022000F066F93120ADF814004720D9
:10032000ADF810000020ADF81600ADF812008DF801
:10033000180004A9134800F039FB1925192460207E
:10034000ADF800000120ADF802000020ADF8080073
:10035000ADF8065069460B4800F082FA08210948BA
:1003600000F0CEFAADF806406946064800F0D2FA31
:100370000821044800F00CFB0121024800F064FA57
:1003800007B030BD0004004030B500228B071C0FC1
:100390000F2303FA04F20B4B8C1053F824309343D1
:1003A000084C8D1044F8253023468C1053F8243027
:1003B0008C07240F00FA04F42343024C8D1044F8F8
:1003C000253030BD080001402DE9F04102460025EE
:1003D0000026002000230024002791F803C00CF021
:1003E0000F0591F803C00CF0100CBCF1000F03D006
:1003F00091F802C04CEA050591F800C0BCF1000F6D
:1004000031D0146800202BE04FF0010C0CFA00F3FF
:10041000B1F800C00CEA03069E4220D183004FF0E1
:100420000F0C0CFA03F7BC4305FA03FC4CEA040476
:1004300091F803C0BCF1280F06D14FF0010C0CFA63
:1004400000FCC2F814C00AE091F803C0BCF1480FE8
:1004500005D14FF0010C0CFA00FCC2F810C0401C92
:100460000828D1D31460B1F800C0BCF1FF0F34DD0F
:10047000546800202EE000F1080C4FF0010808FA43
:100480000CF3B1F800C00CEA03069E4221D18300B0
:100490004FF00F0C0CFA03F7BC4305FA03FC4CEACF
:1004A000040491F803C0BCF1280F05D100F1080C39
:1004B00008FA0CF8C2F8148091F803C0BCF1480F98
:1004C00007D100F1080C4FF0010808FA0CF8C2F847
:1004D0001080401C0828CED35460BDE8F0814161F3
:1004E00070470161704700BFFEE7000008B50121B9
:1004F000042000F087F81020ADF800008DF803000C
:1005000003208DF8020069460548FFF75DFF0420CF
:10051000ADF8000069460248FFF756FF08BD00002D
:100520000008014000BFFEE7704708B54FF4C06007
:1005300000F04CF806208DF8000001208DF8010035
:100540008DF802008DF80300684600F007F82820B7
:100550008DF80000684600F001F808BD70B5002174
:1005600000230F22C47804B3154C246804F4E0641B
:10057000C4F5E064210AC1F10403CA40447804FAD6
:1005800003F184781440214309010E4C0678A155EB
:10059000047804F01F050124AC4005786D11AD000E
:1005A00005F1E025C5F8004109E0047804F01F05D5
:1005B0000124AC40044D0678761145F8264070BD04
:1005C0000CED00E000E400E080E100E002490143BE
:1005D000024A1160704700000000FA050CED00E0CF
:1005E0007047000029B1064AD2690243044BDA6120
:1005F00004E0034AD2698243014BDA61704700008C
:100600000010024029B1064A92690243044B9A61E4
:1006100004E0034A92698243014B9A6170470000EB
:100620000010024030B500210022002400232D4D8F
:100630006D6805F00C0121B1042905D0082923D1EA
:1006400005E0294D056022E0274D05601FE0254D9E
:100650006D6805F47012234D6D6805F48034022531
:1006600005EB92421CB9214D554305600BE01D4D31
:100670006D6805F400351DB11C4D5543056002E061
:10068000194D5543056002E0174D056000BF00BFDE
:10069000144D6D6805F0F0010909154D6B5C056896
:1006A000DD4045600F4D6D6805F4E061090A104DAD
:1006B0006B5C4568DD4085600A4D6D6805F46051EE
:1006C000C90A0B4D6B5C4568DD40C560054D6D6822
:1006D00005F44041890B074D6B5CC568B5FBF3F52C
:1006E000056130BD0010024000127A0000093D0093
:1006F0000000002010000020704710B500F002F844
:1007000010BD00000CB50020019000903348006837
:1007100040F480303149086000BF3048006800F480
:10072000003000900198401C0190009818B9019881
:10073000B0F5A06FF1D12948006800F4003010B185
:100740000120009001E0002000900098012843D192
:100750002348006840F010002149086008460068FE
:1007600020F0030008600846006840F002000860BE
:100770001A48406819494860084640684860084679
:10078000406840F4806048600846406820F47C106F
:1007900048600846406840F4E81048600846006831
:1007A00040F08070086000BF0C48006800F00070E6
:1007B0000028F9D00948406820F003000749486044
:1007C0000846406840F00200486000BF03484068A7
:1007D00000F00C000828F9D10CBD00000010024008
:1007E000002002407047000010B51348006840F038
:1007F00001001149086008464068104908400E4948
:100800004860084600680E4908400B4908600846E1
:10081000006820F4802008600846406820F4FE004C
:1008200048604FF41F008860FFF767FF4FF00060DB
:100830000449086010BD0000001002400000FFF8ED
:10084000FFFFF6FE08ED00E021B1028842F0010250
:10085000028004E002884FF6FE731A40028070475F
:1008600070B5002400220023058C4FF6FF6635404A
:100870000584028C8388848B4FF68F752C404FF64D
:10088000FC752C400D882C434FF6FF552A400D89EE
:100890004FF6FF7606EA05252A434D8806EA052528
:1008A0002A43154DA84202D0144DA8421DD14FF243
:1008B000FF752A404D894FF6FF7606EA05252A4343
:1008C0004FF6FF352A408D8806EA05252A434EF665
:1008D000FF752B404DF6FF752B408D8906EA0515F7
:1008E0002B43CD8906EA05152B4383808483CD886D
:1008F0008587028470BD0000002C01400034014057
:100900000A460021818B4FF6F7731940114381830A
:100910007047000070B5002200230024058C4EF6BD
:10092000FF7635400584038C8488828B48F6FF75FA
:100930002A404FF6FF452A400D884FF6FF7606EA1B
:1009400005252A434DF6FF752B400D8906EA05352E
:100950002B434D8806EA05352B430B4DA84202D0A8
:100960000A4DA84208D14BF6FF752C408D894FF6F1
:10097000FF7606EA85152C4384808283CD88A0F813
:100980004050038470BD0000002C01400034014041
:100990000A460021818B4FF2FF7319404FF6FF7317
:1009A00003EA022319438183704700000022028872
:1009B0001D4B98420ED01D4B98420BD0B0F1804F8A
:1009C00008D01B4B984205D01A4B984202D01A4BC4
:1009D000984204D14FF68F731A404B881A43174B35
:1009E000984207D0164B984204D04FF6FF431A4066
:1009F000CB881A4302808B8883850B8803850A4B3A
:100A000098420BD0094B984208D00E4B984205D023
:100A10000D4B984202D00D4B984201D10B7A0386C0
:100A20000123838270470000002C01400034014004
:100A30000004004000080040000C0040001000408E
:100A400000140040004001400044014000480140C3
:100A500021B1828942F40052828104E082894DF6FC
:100A6000FF731A408281704700B585B001210420D0
:100A7000FFF7C8FD01218803FFF7C4FD4FF40070A4
:100A8000ADF8100018208DF8130003208DF8120027
:100A900004A91348FFF798FC4FF48060ADF81000EC
:100AA00004208DF8130004A90D48FFF78DFC4FF4C6
:100AB000E13000900020ADF80400ADF80600ADF87C
:100AC0000800ADF80C000C20ADF80A006946054896
:100AD00000F00AF801210348FFF7BAFF05B000BD96
:100AE00000080140003801402DE9F04786B0054676
:100AF0000E460024A24600BFA1460027B08900B1DF
:100B000000BF2F462C8A4CF6FF700440F088044347
:100B10002C82AC894EF6F3100440B088318908432A
:100B2000718908430443AC81AC8A4FF6FF4004400E
:100B3000B0890443AC8201A8FFF774FD1F488742C7
:100B400002D1DDF810A001E0DDF80CA0A88900F4C6
:100B5000004040B10AEBCA0000EB0A1031684900BE
:100B6000B0FBF1F807E00AEBCA0000EB0A103168AD
:100B70008900B0FBF1F86420B8FBF0F00401200913
:100B8000642101FB1089A88900F4004040B13220A3
:100B900000EBC900B0FBF1F000F00700044308E0EF
:100BA000322000EB09106421B0FBF1F000F00F00DF
:100BB00004432C8106B0BDE8F087000000380140F6
:100BC00000BFFEE702E008C8121F08C1002AFAD1E0
:100BD00070477047002001E001C1121F002AFBD1BD
:100BE00070470000FFF782FCFFF71EFBFFF788FB52
:100BF000FFF73AFF07E004210348FFF772FC1021DA
:100C00000148FFF76CFCF6E7000801402C0C0008D7
:100C10000000002014000000C40B0008400C000875
:100C20001400002004040000D40B000800000000A1
:100C3000010203040102030406070809020406086E
:0400000508000131BD
:00000001FF
